:020000040800F2
:1000000020070020A1010008A9230008AB23000855
:10001000AF230008B3230008B72300080000000046
:10002000000000000000000000000000B301000814
:10003000B501000800000000B7010008BB2300085C
:10004000BB010008BB010008BB010008BB010008A0
:10005000BB010008BB010008BB010008BB01000890
:10006000BB010008BB010008BB010008BB01000880
:10007000BB010008BB010008BB010008BB01000870
:10008000BB010008BB010008BB010008BB01000860
:10009000BB010008BB010008BB010008BB01000850
:1000A000BB010008BB010008BB010008BB01000840
:1000B000BB010008C7230008BB010008BB01000802
:1000C000BB010008BB010008BB010008BB01000820
:1000D000BB010008BB010008BB010008BB01000810
:1000E000BB010008BB010008BB01000800F002F8DA
:1000F00000F047F80AA090E8000C82448344AAF17B
:100100000107DA4501D100F03CF8AFF2090EBAE878
:100110000F0013F0010F18BFFB1A43F0010318473B
:100120006470000084700000103A24BF78C878C161
:10013000FAD8520724BF30C830C144BF04680C60ED
:10014000704700000023002400250026103A28BF35
:1001500078C1FBD8520728BF30C148BF0B60704739
:10016000662905F0D085002070471FB503F020FCFC
:1001700004000020002104F037FDE0601FBD10B531
:1001800010BD03F019FD1146FFF7EFFF02F044F830
:1001900003F037FD03B4FFF7F2FF03BC03F07AFD71
:1001A0000948804709480047FEE7FEE7FEE7FEE70B
:1001B000FEE7FEE7FEE7FEE7FEE7FEE70448054947
:1001C000054A064B70470000BF020008ED0000081A
:1001D0002001002020070020200300202003002011
:1001E0000CB50020019000906C48006840F480300D
:1001F0006A49086000BF6948006800F40030009058
:100200000198401C0190009818B90198B0F5A06FB2
:10021000F1D16248006800F4003010B10120009074
:1002200001E0002000900098012843D15C4800685C
:1002300040F010005A4908600846006820F00300AA
:1002400008600846006840F00200086053484068B3
:10025000524948600846406848600846406840F493
:10026000806048600846406820F47C10486008467A
:10027000406840F4E81048600846006840F080702C
:10028000086000BF4548006800F000700028F9D001
:100290004248406820F003004049486008464068F2
:1002A00040F00200486000BF3C48406800F00C008D
:1002B0000828F9D10CBD10B5FFF792FF10BD10B59D
:1002C0003648006840F0010034490860084640683C
:1002D00034490840314948600846006832490840BE
:1002E0002E4908600846006820F48020086008460F
:1002F000406820F4FE0048604FF41F008860FFF75C
:10030000DAFF4FF000602949086010BD10B50021E8
:1003100000200022214B5B6803F00C0121B104296D
:1003200006D0082928D107E0214B224C236027E082
:100330001F4B204C236023E0184B5B6803F47010C4
:10034000164B5B6803F48032022303EB904022B922
:10035000194B4343174C23600DE0104B5B6803F4CB
:10036000003323B1144B4343124C236003E0104B82
:100370004343104C236003E00D4B0E4C236000BF41
:1003800000BF064B5B68C3F303130C4CE15C094BE5
:100390001B68CB40074C236010BD000000100240DA
:1003A000002002400000FFF8FFFFF6FE08ED00E02D
:1003B00000127A000000002000093D000400002027
:1003C00031490143314A1160704770B50021002363
:1003D0000F22C47804B32D4C246804F4E064C4F5FF
:1003E000E064210AC1F10403CA40447804FA03F12D
:1003F0008478144021430901254C0678A1550478DE
:1004000004F01F050124AC4005786D11AD0005F125
:10041000E025C5F8004109E0047804F01F05012437
:10042000AC401C4D0678761145F8264070BD1A4A3E
:100430000A400243154B1B1F1A60704739B1134A1B
:10044000121D12680243114B1B1D1A6006E00F4A71
:10045000121D126882430D4B1B1D1A607047042841
:1004600008D14FF0E021096941F004014FF0E0228A
:10047000116107E04FF0E021096921F004014FF01C
:10048000E0221161704700000000FA050CED00E069
:1004900000E400E080E100E080FFFF1F10B50446AB
:1004A000CC48844208D10121042000F02DFB00211A
:1004B000042000F029FB46E0C748844208D101210E
:1004C000082000F021FB0021082000F01DFB3AE08D
:1004D000C248844208D10121102000F015FB002100
:1004E000102000F011FB2EE0BD48844208D101210C
:1004F000202000F009FB0021202000F005FB22E075
:10050000B848844208D10121402000F0FDFA0021C2
:10051000402000F0F9FA16E0B348844208D10121E6
:10052000802000F0F1FA0021802000F0EDFA0AE0CE
:10053000AE48844207D10121801500F0E5FA002180
:10054000A01500F0E1FA10BD10B50121084600F039
:10055000DBFA0021012000F0D7FA10BD2DE9F041AF
:10056000024600250026002000230024002791F8E1
:1005700003C00CF00F0591F803C00CF0100CBCF197
:10058000000F03D091F802C04CEA050591F800C0B5
:10059000BCF1000F31D0146800202BE04FF0010CAB
:1005A0000CFA00F3B1F800C00CEA03069E4220D119
:1005B00083004FF00F0C0CFA03F7BC4305FA03FC61
:1005C0004CEA040491F803C0BCF1280F06D14FF0A7
:1005D000010C0CFA00FCC2F814C00AE091F803C048
:1005E000BCF1480F05D14FF0010C0CFA00FCC2F829
:1005F00010C0401C0828D1D31460B1F800C0BCF171
:10060000FF0F34DD546800202EE000F1080C4FF09D
:10061000010808FA0CF3B1F800C00CEA03069E4288
:1006200021D183004FF00F0C0CFA03F7BC4305FAFD
:1006300003FC4CEA040491F803C0BCF1280F05D177
:1006400000F1080C08FA0CF8C2F8148091F803C005
:10065000BCF1480F07D100F1080C4FF0010808FA6F
:100660000CF8C2F81080401C0828CED35460BDE8B6
:10067000F0814FF6FF710180022181700421C17069
:1006800070470246002093680B400BB1012000E048
:10069000002070470146886880B2704702460020FB
:1006A000D3680B400BB1012000E0002070470146E9
:1006B000C86880B2704701617047416170470AB1F4
:1006C000016100E041617047C16070474FF48032C2
:1006D0000A43826181618261826982697047024650
:1006E0000020434B18684FF68073184040EA021010
:1006F00008433F4B186070473E49C8617047F0B5EA
:100700000A46002300240021002500F00046B6F12F
:10071000004F02D1364EF16901E0354E7168C0F3E9
:10072000034583B200F44016B6F5401F08D121F00E
:1007300070612F4E766826F070662D4F7E6012E055
:1007400000F48016B6F5801F06D1032606FA05F4DC
:10075000A14341F0706106E0460D360103FA06F64A
:10076000B14341F0706122B1460D360103FA06F63D
:10077000314300F00046B6F1004F02D11C4EF1614A
:1007800001E01B4E7160F0BD30B500228B071C0FDD
:100790000F2303FA04F2164B08338C1053F824305D
:1007A0009343134C08348D1044F8253023468C10A5
:1007B00053F824308C07240F00FA04F423430C4C24
:1007C00008348D1044F8253030BD0A49DC3108600A
:1007D0007047000000080140000C0140001001407B
:1007E0000014014000180140001C0140002001409D
:1007F0000000014000002042DF48006840F0010096
:10080000DD49086008464068DC490840DA4948602C
:1008100008460068DA490840D74908600846006879
:1008200020F4802008600846406820F4FE004860FC
:100830004FF41F0088607047CF49096821F4803168
:10084000CD4A11601146096821F480211160B0F58C
:10085000803F03D0B0F5802F0ED106E0C64909686D
:1008600041F48031C44A116007E0C349096841F48A
:10087000A021C14A116000E000BF00BF704710B561
:1008800001460022002300204A11012A02D1BA4C5D
:10089000236806E0022A02D1B74C236A01E0B64C75
:1008A000636A01F01F02012494401C400CB1012036
:1008B00000E0002010BD38B5002000900024002585
:1008C00000BF3120FFF7DBFF05460098401C009079
:1008D0000098B0F5A06F01D0002DF2D03120FFF7C5
:1008E000CEFF08B1012400E00024204638BD0146B7
:1008F0000020A14A106820F0F80040EAC100106012
:100900007047A04908607047024600209A4B58681B
:1009100020F47C1042EA01031843974B586070475B
:1009200098490866704701460020934A506820F0B5
:1009300003000843506070478F48406800F00C0087
:100940007047014600208C4A506820F0F0000843B0
:100950005060704701460020874A506820F4E060EC
:1009600008435060704701460020834A506820F4D5
:10097000605040EAC1005060704729B17E4A527A07
:1009800002437D4B5A7204E07B4A527A82437A4B8F
:100990005A7270477B49D831086070470146002081
:1009A000754A506820F44040084350607047002169
:1009B000714A20321170704A82F82010012802D04A
:1009C00004280AD104E001216B4A2032117005E0AD
:1009D0000521694A2032117000E000BF00BF704756
:1009E0006949086070476449096A0143624A1162B3
:1009F0007047654944390860704730B500210022CE
:100A0000002400235C4D6D6805F00C0121B1042920
:100A100005D0082923D105E05C4D056022E05B4D3F
:100A200005601FE0544D6D6805F47012524D6D68FD
:100A300005F48034022505EB92421CB9544D554310
:100A400005600BE04C4D6D6805F400351DB1504D4F
:100A50005543056002E04D4D5543056002E04B4DA6
:100A6000056000BF00BF444D6D6805F0F001090945
:100A7000484D6B5C0568DD4045603F4D6D6805F491
:100A8000E061090A434D6B5C4568DD4085603A4D85
:100A90006D6805F46051C90A3E4D6B5C4568DD40E8
:100AA000C560354D6D6805F44041890B3A4D6B5C6E
:100AB000C568B5FBF3F5056130BD29B12E4A526911
:100AC00002432D4B5A6104E02B4A526982432A4B60
:100AD0005A61704729B1284A92690243264B9A61AC
:100AE00004E0254A92698243234B9A61704729B1F9
:100AF000214AD2690243204BDA6104E01E4AD269DE
:100B000082431D4BDA61704729B11B4AD268024308
:100B1000194BDA6004E0184AD2688243164BDA6057
:100B2000704729B1144A12690243134B1A6104E059
:100B3000114A12698243104B1A61704712494039B9
:100B4000086070470F49C86470470B49C871704707
:100B50000948406A40F08070074948627047014682
:100B60000020054A92680A400AB1012000E00020F6
:100B70007047014988727047001002400000FFF87A
:100B8000FFFFF6FE000042428004424200127A005B
:100B900000093D00140000202400002010B5044688
:100BA000FE48844208D10121C014FFF7ADFF0021A7
:100BB000E014FFF7A9FFC4E0B4F1804F08D1012190
:100BC0000846FFF7AEFF00210120FFF7AAFFB8E0BB
:100BD000F348844208D101210220FFF7A2FF00213F
:100BE0000220FFF79EFFACE0EE48844208D10121CD
:100BF0000420FFF796FF00210420FFF792FFA0E0FA
:100C0000E948844208D101210820FFF78AFF00212A
:100C10000820FFF786FF94E0E448844208D10121D0
:100C20001020FFF77EFF00211020FFF77AFF88E0F9
:100C3000DF48844208D101212020FFF772FF002104
:100C40002020FFF76EFF7CE0DA48844208D10121C2
:100C50004014FFF759FF00216014FFF755FF70E0C3
:100C6000D548844209D10121C804FFF74DFF002176
:100C70004FF40020FFF748FF63E0D048844209D1D9
:100C800001210805FFF740FF00214FF48010FFF716
:100C90003BFF56E0CA48844209D101214805FFF7CD
:100CA00033FF00214FF40010FFF72EFF49E0C54845
:100CB000844208D101214020FFF733FF002140206A
:100CC000FFF72FFF3DE0C048844208D1012180207A
:100CD000FFF727FF00218020FFF723FF31E0BB480B
:100CE000844208D101218015FFF71BFF0021A015C8
:100CF000FFF717FF25E0B648844209D10121080417
:100D0000FFF702FF00214FF48030FFF7FDFE18E0EF
:100D1000B048844209D101214804FFF7F5FE0021C3
:100D20004FF40030FFF7F0FE0BE0AB48844208D1EF
:100D300001218804FFF7E8FE00214FF48020FFF72F
:100D4000E3FE10BD00220288944B98420ED0994BCE
:100D500098420BD0B0F1804F08D0914B984205D00B
:100D6000904B984202D0904B984204D14FF68F732B
:100D70001A404B881A438D4B984207D08C4B9842AF
:100D800004D04FF6FF431A40CB881A4302808B8869
:100D900083850B880385814B98420BD0854B984205
:100DA00008D08B4B984205D08A4B984202D08A4B90
:100DB000984201D10B7A038601238382704770B574
:100DC000002400220023058C4FF6FE763540058472
:100DD000028C8388048B4FF68F752C40B51E2C40F7
:100DE0000D882C43751E2A400D892A434D882A43BD
:100DF0006A4DA8420BD06F4DA84208D0744DA8424E
:100E000005D0744DA84202D0734DA84213D14FF6BD
:100E1000F7752A404D892A434FF6FB752A408D8885
:100E20002A434FF6FF652B404FF6FF552B408D8927
:100E30002B43CD892B4383800483CD888586028410
:100E400070BD70B5002400220023058C4FF6EF76AC
:100E500035400584028C8388048B48F6FF752C404E
:100E60004FF6FF452C400D884FF6FF7606EA052524
:100E70002C434FF6DF752A400D8906EA05152A43F3
:100E80004D8806EA05152A43444DA84202D0494D33
:100E9000A8421DD14FF67F752A404D894FF6FF7647
:100EA00006EA05152A434FF6BF752A408D8806EAE3
:100EB00005152A434FF6FF352B404FF2FF752B40A7
:100EC0008D8906EA85052B43CD8906EA85052B43E6
:100ED00083800483CD880587028470BD70B50024AB
:100EE00000220023058C4FF6FF6635400584028CF6
:100EF0008388848B4FF68F752C404FF6FC752C4001
:100F00000D882C434FF6FF552A400D894FF6FF768A
:100F100006EA05252A434D8806EA05252A431F4D82
:100F2000A84202D0234DA8421DD14FF2FF752A409E
:100F30004D894FF6FF7606EA05252A434FF6FF3521
:100F40002A408D8806EA05252A434EF6FF752B4078
:100F50004DF6FF752B408D8906EA05152B43CD898B
:100F600006EA05152B4383808483CD888587028418
:100F700070BD70B5002200230024058C4EF6FF766C
:100F800035400584038C8488828B48F6FF752A409F
:100F90004FF6FF452A400D8820E00000002C01405C
:100FA0000004004000080040000C00400010004019
:100FB0000014004000340140004C0140005001404A
:100FC0000054014000180040001C00400020004078
:100FD0000040014000440140004801404FF6FF76C8
:100FE00006EA05252A434DF6FF752B400D8906EAD2
:100FF00005352B434D8806EA05352B43FA4DA842AB
:1010000002D0FA4DA84208D14BF6FF752C408D89CD
:101010004FF6FF7606EA85152C4384808283CD88BF
:10102000A0F84050038470BD828B4FF2FF331A400A
:101030008283828B4FF6FF7303EA01231A43828374
:101040007047F0B50C461546002200210026078C9B
:101050004EF6FF7C07EA0C070784828B018C4FF663
:10106000FF7707EA043640F6FF473A404FF6FF772E
:1010700007EA05273A434FF6FF7707EA03373A4373
:10108000D94FB8420ED0D94FB8420BD0B0F1804FF3
:1010900008D0D74FB84205D0D64FB84202D0D64F6D
:1010A000B84206D14DF6FF77394046F480573943B0
:1010B00005E047F6FF57394044F4805739438283AF
:1010C0000184F0BD828B4FF6F3731A408283828BCA
:1010D0000A4382837047F0B50C4615460022002172
:1010E0000026078C4FF6FF6C07EA0C070784828BFB
:1010F000018C4FF6FF7707EA04264FF60C773A404B
:101100004FF6FF7707EA03172F433A43B64FB8422B
:101110000ED0B64FB8420BD0B0F1804F08D0B44FCC
:10112000B84205D0B34FB84202D0B34FB84206D14F
:101130004FF6FF57394046F48077394305E04FF2C8
:10114000FF57394044F48077394382830184F0BDEE
:10115000028B4FF2FF331A400283028B4FF6FF736C
:1011600003EA01231A4302837047F0B50C46154683
:10117000002200210026078C4FF6EF7C07EA0C07BF
:101180000784028B018C4FF6FF7707EA041640F6BE
:10119000FF473A404FF6FF7707EA03373A434FF6E7
:1011A000FF7707EA05273A438F4FB8420ED08F4F9B
:1011B000B8420BD0B0F1804F08D08D4FB84205D067
:1011C0008C4FB84202D08C4FB84206D14FF6DF7731
:1011D000394046F01007394305E04FF65F77394054
:1011E00044F01007394302830184F0BD028B4FF6AF
:1011F000F3731A400283028B0A4302837047F0B5EF
:101200000C46154600220021068C4FF6FE773E4024
:101210000684028B018C4FF60C7632407E1C06EA67
:1012200003162E433243704EB0420ED06F4EB04282
:101230000BD0B0F1804F08D06D4EB04205D06D4E4E
:10124000B04202D06C4EB04206D14FF6FD7631402E
:1012500044F00106314305E04FF6F576314044F0A5
:101260000106314302830184F0BD70B505460C468A
:101270005D4885420ED05D4885420BD0B5F1804F68
:1012800008D05B48854205D05A48854202D05A486A
:10129000854200D100E000BF208850B92389A28890
:1012A00061882846FFF7ABFFE1882846FFF79EFFDD
:1012B00025E0208804280AD12389A288618828464D
:1012C000FFF753FFE1882846FFF742FF17E0208829
:1012D00008280AD12389A28861882846FFF7FBFEE7
:1012E000E1882846FFF7EEFE09E02389A28861889D
:1012F0002846FFF7A6FEE1882846FFF795FE70BD59
:101300002DE9F04105460C4600260127608808B902
:10131000022600E00026A088012801D1022700E073
:1013200001272088A0B92389A28861882846FFF771
:1013300066FFE1882846FFF759FF23893A46314680
:101340002846FFF712FFE1882846FFF701FF13E068
:101350002389A28861882846FFF707FFE18828468D
:10136000FFF7F6FE23893A4631462846FFF747FF46
:10137000E1882846FFF73AFFBDE8F0810A884B88EC
:101380001A438B881A43CB881A430B891A434B891B
:101390001A438B891A43A0F8442070474FF6FF7117
:1013A000818000210180C18041800172704700214D
:1013B000018041808180C180018141818181C18121
:1013C0007047002101804180012181800021C1807E
:1013D000018170470021018041808180C1800181AD
:1013E0004181818170470000002C014000340140A0
:1013F0000004004000080040000C004021B10288B9
:1014000042F00102028004E002884FF6FE731A40A7
:101410000280704731B1B0F8442042F40042A0F895
:10142000442005E0B0F84420C2F30E02A0F84420A6
:1014300070471AB183890B43838102E083898B4310
:10144000838170478182704741EA0203A0F84830E7
:1014500070471AB183890B43838102E083898B43F0
:101460008381704701894FF6F872114001817047FE
:101470000A46002101894FF68F73194011430181FB
:10148000704730B504460D4629462046FFF7F0FF69
:10149000208940F00700208130BD2DE9F04104464D
:1014A0000D4616461F46602D06D13B4601223146A9
:1014B0002046FFF75AFE05E03B4601223146204612
:1014C000FFF79DFE29462046FFF7D2FF208940F016
:1014D00007002081BDE8F08130B50C46002101896C
:1014E000C9B24FF6FF7505EA032515432543294385
:1014F000018130BD2DE9F04105460E46174698465C
:10150000002443463A4631462846FFF7E5FF2C893A
:101510004FF6F870044044F007044FF68F70044013
:1015200044F070042C81BDE8F081F0B504460D460E
:1015300016461F463B46324629462046FFF7CCFF5B
:10154000208940F480402081F0BD0185828270476F
:101550000A46002101884FF68F731940114301801C
:101560007047F0B50C4615461E46002100220023A8
:101570000189028B038C4FF6F877394021434FF6EF
:10158000FC473A4040F201173A434FF6DD773B40C3
:101590004FF6FF7707EA06172F433B43018102838B
:1015A0000384F0BD0A460021018B4FF68F7319406A
:1015B0001143018370470A460021018B48F6FF73EF
:1015C00019404FF6FF7303EA022319430183704762
:1015D0000A460021818B4FF68F7319401143818396
:1015E00070470A460021818B48F6FF7319404FF679
:1015F000FF7303EA022319438183704721B10288F4
:1016000042F08002028004E002884FF67F731A40A5
:101610000280704721B1828842F00402828004E097
:1016200082884FF6FB731A408280704721B182880E
:1016300042F00802828004E082884FF6F7731A4075
:101640008280704721B1828842F00102828004E0EA
:1016500082884FF6FE731A40828070470A46002146
:10166000018B4FF6F77319401143018370470A4607
:101670000021018B4FF2FF7319404FF6FF7303EA0D
:1016800002231943018370470A460021818B4FF6DC
:10169000F77319401143818370470A460021818BFB
:1016A0004FF2FF7319404FF6FF7303EA0223194309
:1016B000818370470A460021018B4FF6FB73194066
:1016C0001143018370470A460021018B4FF6FF3317
:1016D00019404FF6FF7303EA022319430183704751
:1016E0000A460021818B4FF6FB7319401143818319
:1016F00070470A460021818B4FF6FF3319404FF6A1
:10170000FF7303EA02231943818370470A460021CD
:10171000018B4FF67F7319401143018370470A46CE
:101720000021018BC1F30E014FF6FF7303EA022380
:101730001943018370470A460021818B4FF67F735E
:1017400019401143818370470A460021818BC1F300
:101750000E014FF6FF7303EA02231943818370479A
:101760000A460021018C4FF6FD7319401143018494
:1017700070470A460021018C4FF6F7731940114358
:10178000018470470A460021018C4FF6DF7319402F
:101790004FF6FF7303EA02131943018470470A46A8
:1017A0000021018C4FF67F7319404FF6FF7303EA57
:1017B00002131943018470470A460021018C4FF639
:1017C000FF5319404FF6FF7303EA022319430184C4
:1017D00070470A460021018C4FF2FF7319404FF603
:1017E000FF7303EA02231943018470470A4600216C
:1017F000018C4DF6FF7319404FF6FF7303EA023375
:1018000019430184704730B5002301248C40A3B2F2
:10181000048C9C430484048C02FA01F5ADB22C4381
:10182000048430BD30B5002304248C40A3B2048C62
:101830009C430484048C02FA01F5ADB22C43048469
:1018400030BD70B50346002000241846183001252D
:101850008D40ACB21D8CA5431D8409B1082909D166
:1018600000EB6100056825F070050560056815430B
:1018700005600EE00D1FC5F34E052844056825F4EC
:10188000E045056005684FF6FF7606EA0226354317
:10189000056070BD21B1028842F00202028004E0BE
:1018A00002884FF6FD731A400280704721B102880A
:1018B00042F00402028004E002884FF6FB731A40F3
:1018C0000280704721B1828842F08002828004E069
:1018D00082884FF67F731A408280704702884FF6E5
:1018E000F7731A40028002880A4302807047828898
:1018F0004FF68F731A40828082880A438280704735
:1019000002894FF6F8731A40028102890A43028164
:10191000704702894FF67F731A40028102890A4399
:101920000281704781847047818570478186704746
:101930000187704781877047A0F840107047028880
:101940004FF6FF431A40028002880A430280704724
:101950000146888E70470146088F70470146888F80
:1019600070470146B1F8400070470146888C7047C7
:101970000146088D704702460020138A0B400BB1C8
:10198000012000E000207047CA430282704730B552
:101990000246002000230024158A05EA01039589E8
:1019A00005EA010413B10CB1012000E0002030BDB4
:1019B000CA4302827047000010B50446FB488442C7
:1019C00009D101218803FFF79FF800214FF48040DF
:1019D000FFF79AF832E0F648844209D10121480421
:1019E000FFF79FF800214FF40030FFF79AF825E049
:1019F000F048844209D101218804FFF792F80021C0
:101A00004FF48020FFF78DF818E0EB48844209D1AD
:101A10000121C804FFF785F800214FF40020FFF7EB
:101A200080F80BE0E548844208D101210805FFF762
:101A300078F800214FF48010FFF773F810BD2DE9FE
:101A4000F04786B005460E460024A24600BFA146D8
:101A50000027B08900B100BF2F462C8A4CF6FF70DA
:101A60000440F08804432C82AC894EF6F310044005
:101A7000B08831890843718908430443AC81AC8A3A
:101A80004FF6FF400440B0890443AC8201A8FEF742
:101A9000B4FFC648874202D1DDF810A001E0DDF8AE
:101AA0000CA0A88900F4004040B10AEBCA0000EB8A
:101AB0000A1031684900B0FBF1F807E00AEBCA00F0
:101AC00000EB0A1031688900B0FBF1F86420B8FB24
:101AD000F0F004012009642101FB1089A88900F4B9
:101AE000004040B1322000EBC900B0FBF1F000F043
:101AF0000700044308E0322000EB09106421B0FB2A
:101B0000F1F000F00F0004432C8106B0BDE8F0872F
:101B10004FF41651016000218180C18001810C21A8
:101B2000418100218181704710B502460020108A52
:101B30004FF2FF0318400B884C8823438C882343C3
:101B4000CC8823431843108210BD002101804180BE
:101B50008180C180704721B1828942F40052828124
:101B600004E082894DF6FF731A4082817047F0B518
:101B70000346002400260025002040F66A17B942DB
:101B800000D100BF1846C1F3421401F01F0601271F
:101B900007FA06F5012C01D10C3004E0022C01D12A
:101BA000103000E014301AB107682F43076002E0DC
:101BB0000768AF430760F0BD1AB1838A0B43838285
:101BC00002E0838A8B4383827047028A4FF6F07368
:101BD0001A400282028A0A430282704782894FF2C7
:101BE000FF731A40828182890A438281704721B142
:101BF000828942F00202828104E082894FF6FD73FD
:101C00001A4082817047028A4FF6DF731A400282BF
:101C1000028A0A430282704721B1028A42F480425A
:101C2000028204E0028A4BF6FF731A400282704778
:101C3000C1F308028280704701468888C0F308001B
:101C40007047818941F0010181817047028BD2B2D6
:101C50000283028B42EA012202837047028B02F464
:101C60007F420283028B0A430283704721B1828A3A
:101C700042F02002828204E0828A4FF6DF731A402B
:101C80008282704721B1828A42F01002828204E08F
:101C9000828A4FF6EF731A408282704721B1828A9E
:101CA00042F00802828204E0828A4FF6F7731A40FB
:101CB0008282704721B1828942F40042828103E02E
:101CC0008289C2F30E028281704721B1828A42F476
:101CD0000062828204E0828A4FF2FF731A4082829D
:101CE0007047828A4FF6FB731A408282828A0A43C7
:101CF0008282704721B1828A42F00202828204E02D
:101D0000828A4FF6FD731A40828270470246002095
:101D1000B1F5007F00D100BF13880B400BB101204B
:101D200000E00020704701F40072B2F5007F00D19E
:101D300000BFCA430280704770B5024600240023EA
:101D40000025002040F66A16B14200D100BFC1F361
:101D5000421501F01F03012606FA03F3012D02D1FB
:101D60009689334006E0022D02D1168A334001E005
:101D7000968A33400C12012606FA04F41688344081
:101D800013B10CB1012000E0002070BD10B500229D
:101D9000002340F66A14A14200D100BF0A120124B8
:101DA0009440A3B2DC43048010BD00000038014021
:101DB0000044004000480040004C004000500040FB
:101DC0002DE9F0470446F948F949097840F82140DF
:101DD000F7480078401C032190FBF1F201FB120050
:101DE000F34908700026002508E0F04850F8251057
:101DF000304603F06FFC0646681CC5B2032DF4DBC9
:101E0000EC49304603F0D4FC8146214603F0FBFE4A
:101E1000054603F033FC21F0004107460022E64B63
:101E200003F000FB02D22046BDE8F087E1493046CE
:101E300003F0BEFCF8E72DE9F0470546DF492846E8
:101E400003F0B6FC07464FF07E5103F0DCFE064679
:101E5000DB49304603F0DAFD074603F06BFD84B240
:101E60004FF03C094C4504DD0221D648FEF723FC27
:101E700005E00221D348FEF720FC0024002621467D
:101E80004FF08040FFF754FDCF49304603F0BEFDD0
:101E9000824603F0F3FB07463A460B46CBA1D248F5
:101EA00001F0B0FAD04801F0F3F900214FF6FF70CD
:101EB00001F05AFA304601F075FABDE8F0872DE9D5
:101EC000F04706460F4690469946DDF820A050465A
:101ED00000F00BFD00240EE0002508E03A1991B255
:101EE0007219D0B2524600F06DFF681C85B24545AC
:101EF000F4DB601C84B24C45EEDBBDE8F0872DE9D5
:101F0000F34F87B0B948B0F80090B948B0F800A0D6
:101F1000B848B0F800B0B848008806901E244FF0CA
:101F200064080A250798FFF74BFF059098FBF5F02A
:101F3000019003F01FFDA1490390059803F038FCC0
:101F40000290039903F062FD049003F0F3FCC6B223
:101F500098FBF5F0B04202DA98FBF5F0C6B298FBB8
:101F6000F5F0029003F006FD0390089903F04EFD92
:101F7000049003F0DFFCC7B2A048007886423ED050
:101F800039E09E480078B04219DA4FF6FF70AAF1A6
:101F90003C029A4B00901B7803FB152291B204EB94
:101FA000D472A9EB620290B22B4622460494FFF74A
:101FB00086FF92480078401C904908701BE08F48CB
:101FC0000078B04217DD8D480078401E8B490870BC
:101FD0000020AAF13C020B4600901B7803FB15225F
:101FE00091B204EBD472A9EB620290B22B46224666
:101FF0000494FFF764FF81480078B042C1D1804863
:10200000007887423ED039E07D480078B84219DA3E
:102010004FF6FF700090069A3C3A794B1B7803FB11
:10202000152291B204EBD472ABEB620290B22B4654
:1020300022460494FFF743FF71480078401C704922
:1020400008701BE06E480078B84217DD6C480078D5
:10205000401E6B49087000200090069A3C3A0B46DF
:102060001B7803FB152291B204EBD472ABEB620236
:1020700090B22B4622460494FFF721FF6048007877
:10208000B842C1D109F0FF001622514600F0E9FE26
:102090000BF0FF001622069900F0E3FE09B0BDE840
:1020A000F08F10B500F008FC4FF6FF7000F01DFC3B
:1020B000002000F020FC002000F05DFC4B49087877
:1020C00016224B49098800F0CCFE4A4908781622AE
:1020D0004949098800F0C5FE4A4A2821142000F029
:1020E000FEFF484AF03228211E2000F0F8FF464A41
:1020F0002821084600F0F3FF434A30323C211E20DD
:1021000000F0EDFF3F4A903A3C21282000F0E7FF25
:102110003D4AF03A3C21322000F0E1FF394A303AA2
:102120003C21084600F0DBFF364A30323C21462095
:1021300000F0D5FF334A2821A02000F0D0FF324A1A
:1021400060322821AA2000F0CAFF2F4A303228210D
:10215000B42000F0C4FF2D4A2821BE2000F0BFFFAC
:10216000284A303A3C21AA2000F0B9FF274A3C21F6
:10217000B42000F0B4FF234A303A3C21BE2000F0E6
:10218000AEFF234A3C21C82000F0A9FF1D4A30328F
:102190003C21D22000F0A3FF10BD1E49086000BF03
:1021A0001C4909680029FBD1704700005400002039
:1021B00028000020000040400000144000002042A1
:1021C00000406344000801400000C84250574D20C1
:1021D00044757479204379636C653A20252E326604
:1021E00025250D0A000000006000002030000020BE
:1021F0003200002034000020360000203C00002087
:102200003D000020BA6400088A670008AA68000838
:102210003A66000838000020524800684FF47A728D
:10222000B0FBF2F1481EB0F1807F00D31BE0481EE6
:102230004FF0E022506150170F22002807DA1307F1
:102240001D0E494B00F00F04241F1D5503E013071A
:102250001C0E464B1C5400BF00204FF0E022906142
:102260000720106100BF00F0D3FF01F02BF800F051
:102270006BFF00F09DFF00F043FF00214FF6FF7061
:1022800001F072F8FFF70DFF6AE080213848FEF791
:1022900012FA0520FFF781FF80213548FEF70DFA7D
:1022A00000203449088034490880344908700021EE
:1022B0003348FFF737FB012202213148FFF7B9F815
:1022C00001212F48FFF79AF800243AE029480088B6
:1022D000002831D02848008870B327490988254A4A
:1022E0001288881A02F039FF0746264A264B02F068
:1022F0009BFF054602F08EFC8146484603F0BEF97E
:1023000005462A460B4621A1254801F07BF82448C2
:1023100000F0BEFF4846FFF78EFD2249484603F015
:1023200047FA06464FF07E5103F06DFC05462946FC
:102330004846FFF7E4FD06E00A20FFF72EFF601C89
:1023400084B20A2CC2DB00BF002202210C48FFF736
:1023500070F800210A48FFF751F8C820FFF71DFF69
:1023600093E700000000002018ED00E000E400E02A
:10237000000801402C0000202E0000202900002031
:10238000000400409CC420B07268913F446973749B
:10239000616E63653A20252E326620636D0D0A005A
:1023A0006000002000002042704700BFFEE700BF31
:1023B000FEE700BFFEE700BFFEE725480068401EBD
:1023C0002349086070470EB502212248FFF7DFFA63
:1023D00000283CD020480078D8B91E48FFF7B8FA4A
:1023E0001E49088001201C4908700020ADF800003B
:1023F0000220ADF802000120ADF804000020ADF885
:1024000006000820ADF8080069461248FEF72DFFC7
:1024100019E01048FFF79CFA1149088000200E4986
:102420000870ADF80000ADF802000120ADF804001E
:102430000020ADF806000820ADF808006946054800
:10244000FEF713FF00BF02210248FFF7B1FA0EBDED
:102450003800002000040040290000202C0000204B
:102460002E000020002109E0002201E0531C9AB256
:1024700040F6B8339A42F9DB4B1C99B28142F3DB48
:1024800070474FF40072F94B1A6052101A60202204
:102490001B1F1A60F64AD06020221B1D1A601B1FEA
:1024A0001A60D2001A60F24AD16020221B1D1A6005
:1024B0001B1F1A60D2001A60704700B5012100206E
:1024C000FFF7DFFF4FF47A70FFF7CCFF0021012008
:1024D000FFF7D7FF41F290711020FFF7D2FF4FF4C2
:1024E0001C516020FFF7CDFF01216120FFF7C9FFDC
:1024F00002214620FFF7C5FF48F210011320FFF725
:10250000C0FF48F2FE011220FFF7BBFF4FF4A061AD
:102510000220FFF7B6FF41F230010320FFF7B1FFC1
:1025200040F203313020FFF7ACFF40F2033131209D
:10253000FFF7A7FF40F203313220FFF7A2FF4FF46D
:1025400040713320FFF79DFF03213420FFF799FFEF
:1025500040F203313520FFF794FF14213620FFF7B6
:1025600090FF40F203313720FFF78BFF40F2033139
:102570003820FFF786FF40F203313920FFF781FF53
:102580004FF440713A20FFF77CFF03213B20FFF717
:1025900078FF40F203313C20FFF773FF4FF4A05166
:1025A0003D20FFF76EFF4FF400719220FFF769FFA7
:1025B00040F203319320FFF764FF40F60D019020B5
:1025C000FFF75FFF41F218010320FFF75AFF40F2C7
:1025D00073110720FFF755FF00BD10B543F2080146
:1025E000E320FFF74EFF1221E720FFF74AFF41F2F9
:1025F0003121EF20FFF745FF00210120FFF741FFC8
:102600004FF4E0610220FFF73CFF41F2300103206C
:10261000FFF737FF00210420FFF733FF40F20721C7
:102620000820FFF72EFF00210920FFF72AFF0021D5
:102630000A20FFF726FF00210C20FFF722FF0021D0
:102640000D20FFF71EFF00210F20FFF71AFF0021CA
:102650001020FFF716FF07211120FFF712FF0021BE
:102660001220FFF70EFF00211320FFF70AFFC820FA
:10267000FFF793FD41F290611020FFF702FF40F257
:1026800027211120FFF7FDFE3220FFF786FD1D21D7
:102690001220FFF7F6FE3220FFF77FFD4FF40061B6
:1026A0001320FFF7EEFE14212920FFF7EAFE0B218D
:1026B0002B20FFF7E6FE3220FFF76FFD00212020E0
:1026C000FFF7DFFE00212120FFF7DBFE072130208E
:1026D000FFF7D7FE40F207713120FFF7D2FE062147
:1026E0003220FFF7CEFE40F204713520FFF7C9FE1D
:1026F00041F604713620FFF7C4FE04213720FFF7AE
:10270000C0FE00213820FFF7BCFE40F206713920E0
:10271000FFF7B7FE40F201713C20FFF7B2FE0F2138
:102720003D20FFF7AEFE00215020FFF7AAFEEF216B
:102730005120FFF7A6FE00215220FFF7A2FE40F233
:102740003F115320FFF79DFE4FF41C516020FFF70F
:1027500098FE01216120FFF794FE00216A20FFF717
:1027600090FE00218020FFF78CFE00218120FFF7E2
:1027700088FE00218220FFF784FE00218320FFF7DE
:1027800080FE00218420FFF77CFE00218520FFF7DA
:1027900078FE10219020FFF774FE00219220FFF7B1
:1027A00070FE03219320FFF76CFE4FF48871952093
:1027B000FFF767FE00219720FFF763FE00219820B6
:1027C000FFF75FFE41F218010320FFF75AFE40F2C7
:1027D00073110720FFF755FE10BD08B54FF6FF70C7
:1027E000ADF8000003208DF8020010208DF80300E2
:1027F00069461F48FDF7B2FE08BD08B54FF6FF70E9
:10280000ADF8000003208DF8020048208DF8030089
:1028100069461748FDF7A2FE08BD70B504464FF49F
:10282000007012490860401008602020091F0860ED
:102830000F48C4602020091D0860091F0860C000FF
:102840000860FFF7DAFF4FF4806008490860084825
:10285000806885B20815091F0860FFF7BEFF4FF4B6
:1028600000700249091F0860284670BD140C014021
:102870000010014008B501211820FEF72BF90121B5
:102880002020FEF727F94FF4E460ADF800000120A6
:102890008DF8020010208DF803006946F948FDF715
:1028A0005DFEFFF79AFFF7481030006840F4C460FF
:1028B000F4491031086008BD10B5FFF7DBFF0020B8
:1028C000FFF7ABFFF04908800846008848F2302146
:1028D000884202D1FFF7F1FD01E0FFF77EFE002004
:1028E000FFF79BFFE849088010BD01B5BDF8000067
:1028F000E649088008BD01B5BDF80000E44908803C
:1029000008BD4FF40071DF4A143211604910121FE4
:10291000116020211160DF49C8602021121D116063
:10292000121F1160C90011604900116070474FF417
:102930000070D44914310860401008602020091F3D
:1029400008602220D349C8602020CE491431086095
:10295000091F0860C000086040000860704730B57B
:1029600004460D4621462020FFF78BFD29462120F5
:10297000FFF787FD30BD30B505460024002108462D
:10298000FFF7EDFFFFF7D3FF00BF03E02846FFF797
:10299000B8FF641CB4F5963FF8D330BD2DE9F04381
:1029A00006468946174600240025A046B0464946FB
:1029B0004046FFF7D4FF00BF1EE0FFF7B8FF002539
:1029C0000FE037F814000121A940084020B9B048B1
:1029D0000088FFF796FF03E0AC480088FFF791FFFF
:1029E0006D1C102DEDD308F1010000F0FF084946E1
:1029F0004046FFF7B4FF641C182CDED3BDE8F0831B
:102A0000F0B504460D4616461F46B44206DBA01B31
:102A1000401C81B25020FFF734FD03E0002150201C
:102A2000FFF72FFD21465120FFF72BFDBD4206DBAE
:102A3000E81B401C81B25220FFF723FD03E0002178
:102A40005220FFF71EFD29465320FFF71AFD2946A5
:102A50002046FFF784FFF0BD00B54FF4A073F022CD
:102A6000591EEF20FFF7CCFF41F218010320FFF7BA
:102A700008FD00BD2DE9F0410646884615461F4673
:102A8000002441463046FFF76AFF5FB9FFF74FFF6A
:102A900000BF04E07D480088FFF733FF641CAC42B0
:102AA000F8D310E000240CE0FFF741FF77480088DE
:102AB000FFF727FF701CC6B241463046FFF74FFFB5
:102AC000641CAC42F0D3BDE8F081F0B505460E467B
:102AD00017461C460023224631462846FFF7CAFF08
:102AE000E919C8B2002322463146FFF7C3FF01238C
:102AF0003A4631462846FFF7BDFF301B401C81B2E5
:102B000001233A462846FFF7B5FFF0BD2DE9F04313
:102B100006460F4690460320A0EB48090024454690
:102B20006EE07A1991B23219D0B2FFF718FFFFF7B1
:102B3000FEFE56480088FFF7E4FE7A1B91B2321978
:102B4000D0B2FFF70CFFFFF7F2FE50480088FFF706
:102B5000D8FE7A1991B2321BD0B2FFF700FFFFF70F
:102B6000E6FE4A480088FFF7CCFE7A1B91B2321B82
:102B7000D0B2FFF7F4FEFFF7DAFE44480088FFF713
:102B8000C0FE3A1991B27219D0B2FFF7E8FEFFF712
:102B9000CEFE3E480088FFF7B4FE3A1B91B2721990
:102BA000D0B2FFF7DCFEFFF7C2FE38480088FFF71F
:102BB000A8FE3A1991B2721BD0B2FFF7D0FEFFF710
:102BC000B6FE32480088FFF79CFE3A1B91B2721B9A
:102BD000D0B2FFF7C4FEFFF7AAFE2C480088FFF72B
:102BE00090FEB9F1000F04DA062000EB8400814466
:102BF00005E0601B0A2101EB800081446D1E641C0E
:102C0000AC428ED9BDE8F08370B50646002400259D
:102C100040F23F110020FFF7A2FEFFF788FE00BF41
:102C200014E000250FE056F824000121A9400840D7
:102C300020B917480088FFF764FE03E013480088B6
:102C4000FFF75FFE6D1C202DEDD3641CB4F5166FED
:102C5000E7D370BD70B50446002500266688A088BD
:102C600046EA00466589A08945EA0045701B46088A
:102C70002C4441F208010320FFF703FCFFF757FE45
:102C800000250EE0000C0140420000203E00002024
:102C900040000020001001402088FFF732FEA41CF5
:102CA0006D1CB542F8D341F218010320FFF7E9FB90
:102CB00070BD10B54FF40070FE4908604010086008
:102CC0002020091F08602220FB49C8602020F94904
:102CD0000860091F0860C0000860FFF78EFD4FF410
:102CE0008060F4490860F448806884B20815091FC0
:102CF0000860FFF772FD4FF40070EE49091F08608D
:102D0000204610BD00B500211020FFF7BAFB0021BE
:102D10001120FFF7B6FB00211220FFF7B2FB0021C4
:102D20001320FFF7AEFB1420FFF79CFB41F2B071BC
:102D30001020FFF7A6FB40F237111120FFF7A1FB8F
:102D40000520FFF78FFB40F239111220FFF799FBA6
:102D50000520FFF787FB4FF4E8511320FFF791FBA5
:102D600013212920FFF78DFB0520FFF77BFB40F2A5
:102D700073110720FFF785FB00BD00B540F273110A
:102D80000720FFF77EFB00BD00B500210720FFF7FD
:102D900078FB00BD30B5054600210846FFF7DFFD92
:102DA000FFF7C5FD002409E015F814206100491C57
:102DB000695C42EA0120FFF7A4FD641CB4F5963F6C
:102DC000F2DB30BD70B505460E4614463146284646
:102DD000FFF7C5FDFFF7ABFD2046FFF792FD70BD85
:102DE0002DE9FC4F04460D4616461F46301B0028B1
:102DF00001DB014600E041428A46B44201DA01208B
:102E000001E04FF0FF300190781B002801DB014604
:102E100000E04142C1F10008BD4201DA012001E0B9
:102E20004FF0FF3000900AEB080916E0A9B2E0B2BB
:102E30004FF6FF72FFF7C6FFB44202D1BD4200D188
:102E40000CE04FEA490BC34502DBC144019804443E
:102E5000D34502DCD14400980544E7E700BFBDE854
:102E6000FC8F2DE9F04F95B08346894692460024A9
:102E700068E0204602F071F9074600228F4B01F00E
:102E8000FBFE8F4A8F4BCDE9000102F0CDF9002205
:102E90008D4BCDE9020101F0ABFF054601F006FEC6
:102EA000CDE90601504602F06FF9CDE90401DDE9F4
:102EB000062302F0B9F9CDE90A01584602F064F997
:102EC000CDE90801DDE90A2301F0D6FECDE90C01C8
:102ED00002F016F912A90855204602F03EF9002228
:102EE000764BCDE9000101F0C7FE754A754BCDE97F
:102EF000020102F099F907460022734B01F078FFB6
:102F0000CDE9040101F020FE05460E46504602F0D0
:102F10003BF92A463346CDE9060102F085F9CDE9B1
:102F20000A01484602F030F9CDE90801DDE90A233B
:102F300001F0A2FECDE90C0102F0E2F80EA921F8A1
:102F40001400641C082C94DB00241DE0651CEF17A2
:102F500005EB5777FF10A5EBC7070DF1380C3CF8D0
:102F60001730661CF71706EB5777FF10A6EBC7075D
:102F70000DF1480C1CF807200EAF37F8141012AFF3
:102F8000385DFFF72DFF641C082CDFDB15B0BDE8B2
:102F9000F08F2DE9F04F074688461646002500249D
:102FA000B94600BF44E041464846FFF7D8FCFFF76A
:102FB000BEFC012000EB450036F810A0680036F892
:102FC00010B00C2410E0601E012101FA00F000EAAC
:102FD0000B0020B93D480088FFF793FC03E03C4814
:102FE0000088FFF78EFC641E002CECD108F10C0069
:102FF00081B24846FFF7B3FCFFF799FC0C2410E0C0
:10300000601E012101FA00F000EA0A0020B92F48F1
:103010000088FFF776FC03E02D480088FFF771FC7D
:10302000641E002CECD109F1010000F0FF096D1CB9
:10303000102DB8D3BDE8F08FF0B50346002006E0B0
:10304000002221F8202001EB80046280401C0C2823
:10305000F6DB002240E000202AE033F81240012590
:1030600085402C401CB30C2A0FDA044600EBD475C3
:103070006D1031F82560012595402E43B5B200EB67
:10308000D476761021F8265011E0044600EBD47572
:103090006D1001EB85056D88A2F10C060127B74084
:1030A0003D4300EBD476761001EB86067580401C1C
:1030B00010280FE0140C0140001001400000E03F18
:1030C0006F1283C0CA210940000010404000002058
:1030D0003E000020C1DB521C182ABCDBF0BD70B5DD
:1030E00005460E46144605492046FFF7A5FF034A4C
:1030F00031462846FFF74DFF70BD0000A0000020BC
:1031000008B54FF4C060FDF75BF926208DF800008C
:1031100001208DF8010000208DF8020001208DF8BB
:1031200003006846FDF751F91D208DF800000020CE
:103130008DF8010001208DF802008DF8030068462B
:10314000FDF743F908BD000000B587B0012102205A
:10315000FDF7CDFC4720ADF810000020ADF81200BF
:103160004FF6FF70ADF814000020ADF8160004A96A
:103170002648FDF7E7FD0020ADF80400ADF8060095
:103180000120ADF808000020ADF80A000820ADF8D5
:103190000C0001A91D48FEF768F801211B48FEF745
:1031A0002DF9012202211948FEF743F907B000BDAD
:1031B00000B587B001210846FDF799FC4720ADF81E
:1031C00010000020ADF8120040F28D30ADF8140070
:1031D0000020ADF8160004A94FF08040FDF7B2FDC5
:1031E0006020ADF800000120ADF802000020ADF82D
:1031F0000600ADF8080069464FF08040FDF721FE5B
:1032000001218807FEF7FAF807B000BD000400406E
:1032100000B585B001210420FDF75CFC01214804C4
:10322000FDF765FC0420ADF8100018208DF81300A0
:1032300003208DF8120004A92048FDF78FF908201B
:10324000ADF8100004208DF8130004A91B48FDF709
:1032500085F94FF4165000900020ADF80400ADF849
:103260000600ADF80800ADF80C000C20ADF80A001F
:1032700069461348FEF7E3FB012240F2255110484E
:10328000FEF775FC01210E48FEF765FC05B000BD98
:1032900070B5044600250DE0605781B20848FEF77E
:1032A000C7FC00BF80210648FEF730FD0028F9D09A
:1032B000681CC5B2605D0028EED170BD00080140F9
:1032C0000044004008B501210420FDF703FC012162
:1032D0001020FDF7FFFB01212020FDF7FBFB4FF441
:1032E0007F40ADF8000010208DF8030001208DF81C
:1032F000020069461948FDF731F90420ADF80000D5
:1033000069461748FDF72AF94020ADF8000004206F
:103310008DF8030069461348FDF720F98020ADF8C9
:10332000000010208DF8030003208DF8020069468C
:103330000C48FDF713F90220ADF8000018208DF8B5
:10334000030003208DF8020069460648FDF706F9E0
:1033500080210448FDF7B1F908BD000000100140CC
:10336000001401400008014070B504460D4665B9DF
:1033700021462148FDF79FF904212048FDF79BF9DC
:1033800004211E48FDF799F90BE021461A48FDF784
:1033900094F904211948FDF78EF904211748FDF727
:1033A0008CF970BD2DE9F04782464FF0000910E01E
:1033B000504602F063F9074600224FF07F5302F0B7
:1033C00073F8054601F026FC824609F101001FFA58
:1033D00080F90021504602F0E5FBE9D3002407E024
:1033E000074931F814000121FFF7BEFF601C84B2C9
:1033F0004C45F5DBBDE8F0870010014000140140AA
:10340000440000200FB41CB5074B06AA7B44694654
:103410000090059800F0B3FA0020694600F0C2FA67
:103420001CBC5DF814FB0000950500002DE9F04779
:103430004FF0000A89460446C0F820A02046E16803
:103440008847002876D0252806D0D4E90121904766
:10345000206A401C2062F1E7E16820460025884789
:10346000C4F81CA006460027C4F818A02A2E09D0CC
:10347000304601F013FB38B304EB8708303EC8F840
:10348000186019E059F8041B204604EB870291618B
:10349000E1688847012F064618D1E069002820DA44
:1034A00025F020051DE0D8F8180000EB800006EBA1
:1034B00040003038C8F818002046E16888470646C2
:1034C00001F0ECFA0028EED1012F0AD02E2E08D1FF
:1034D0002046E16888477F1C0646022F45F02005FC
:1034E000C4DBA069002803DA404245F00105A06171
:1034F000E80701D025F01005B6B1A6F14100192862
:1035000002D8203645F400654A46314620462560FB
:103510004D46FCF725FE58B1012806D0ED1D25F0DB
:10352000070000F1080989E704E005F1040985E7CF
:1035300030468AE7206ABDE8F087704770477047D9
:1035400010B500F039FA006810BD10B5044600F05F
:1035500033FA046010BD70472DE9FF4F0C461E463C
:103560004FF0FF378BB0D2E90001DDF860800A90A0
:103570008A46C1F30A5505B93D46002108464FF079
:103580000000BAF1000F00F4400005DA00EB800003
:103590004FF4400101EA50004FEA9059B9F1010F90
:1035A00000DDB9460A9850EA4A000ED044F61050A1
:1035B000A5F2FF3545432F14B8F1000F1ED0754218
:1035C000291E1EDDC9F100021CE0B8F1010F4FF009
:1035D000000001D0302103E0F24305E02154401CFB
:1035E000B042FBDB30460022002121540B99C1F888
:1035F0000880C1E900200FB0BDE8F08FBD1B6D1C35
:10360000DEE74A4600DA694206A800F05FFA06AB38
:1036100093E8070003AB83E8070050460A9900F0DF
:1036200040FB8DE80700A0F500501F38009003987C
:10363000002D0ADD42F21F014A460844002303A977
:103640000390684600F0A9FD09E0A0F500504A4645
:103650001F38002303A90390684600F0B3FD8DE8EE
:1036600007000004000C03D04FF0FF30410800E0D9
:103670001046B8F1000F03D00022009215461EE05C
:10368000751E05D400F09CF9303262556D1EF9D5D7
:10369000B3460122084302D000227F1C04E02078B8
:1036A000302801D100227F1E002A099784D01DE016
:1036B000112D07DA00F084F9303262556D1C50EAA2
:1036C0000102F5D1084302D00098C8B10EE00021F4
:1036D000681E05E0235C625C63542254401E491C52
:1036E0008142F7DBAB46A81B401E0990002004F87E
:1036F0000B000B98099AC0F80880C0E9002B7AE704
:1037000011264FF0000857E72DE9F04F8846044690
:10371000D21D22F0070191B0D1E90001CDE90A01E3
:1037200000F087FE02460B98C00F01D02D2007E065
:103730002068810701D52B2002E0202101EAC0008A
:10374000032A099001D0072A05DB0346414620469B
:1037500000F07CF90BE12078800601D5E06900E0FB
:103760000620B8F1650F814606D0B8F1660F18D073
:10377000B8F1670F70D131E00020B9F1110F00905E
:1037800001DB112301E009F101030AAA01A90CA838
:10379000FFF7E2FEDDE90C70002609F10105834622
:1037A00047E001204B4600904FF000470AAA01A9CC
:1037B0000CA8FFF7D1FEDDE90DB00C995D4600269F
:1037C00010B909F101000D18B9EB050003D4C0F1DF
:1037D000FF3609F10105A5EB09002BE0B9F1010F56
:1037E00001DA4FF001090020B9F1110F00904846AD
:1037F00001DD112300E003460AAA01A90CA8FFF786
:10380000ABFEDDE90C704D460026834620780007AC
:103810000AD4AB4500DA5D4601A8012D04DD41194B
:1038200011F8011C302907D04F4502DA17F1040FB7
:1038300004DA012082460FE06D1EEEE7002F02DC65
:10384000ED1B3E4403E0781CA84200DD7D1CB81B44
:1038500000F1010A4FF000472078000703D4AA4581
:1038600001DB4FF0FF3A0021B7F1004F0DF14308A3
:103870008DF8431024D002202B23002F01DA7F4241
:103880002D230A21021EA0F1010000DC5FB197FB8D
:10389000F1FC97FBF1F201FB1C7C17460CF1300C9C
:1038A00008F801CDEEE7A8F10100037021880905B1
:1038B00001D5452100E06521A0F1010800F8011CB7
:1038C00009980FA9A1EB0807FF1D00B101204119BC
:1038D00001EBEA70A1693844081A401EA061207803
:1038E000C00602D42046AFF30080099828B1D4E97D
:1038F00001219047206A401C20622078C00622D512
:103900002046AFF300801EE0002E04DBB34502DD4D
:1039100001A8805D00E03020D4E901219047206AB1
:10392000401C2062761CAAF101005FEA000A0AD15D
:1039300000F03EF8C0680168405CD4E9012190477E
:10394000206A401C2062281EA5F10105DCDC07E08E
:10395000D4E9012118F8010B9047206A401C20622D
:10396000381EA7F10107F3DC2046AFF300800320E7
:1039700011B041E601694A1C02610878704700B540
:103980008FB0CDE901310021059105497944CDE998
:10399000031011466846FFF749FD0FB000BD000057
:1039A000E5FFFFFF0A6802F8010B0A60704700009C
:1039B00000487047E000002000487047C000002029
:1039C00030B5B0F10A024FEA900E71F100034EEAF1
:1039D000817EB0EB0E0061EB91014FEA101E4EEAC2
:1039E000017E10EB0E0041EB11114FEA102E4EEA52
:1039F000016E10EB0E0041EB11214FEA104E4EEA22
:103A0000014E10EB0E0041EB1141401841F1000155
:103A10004FEAD00040EA41704FEAD10110EB800537
:103A20004FEA810444EA907444EB01046D1944EBBD
:103A30000404521BA3414FF0000348BF0A3200D5D3
:103A400030BD401C41F1000130BD00002DE9F041C6
:103A50001F46044603260168072A01F4006004DBC0
:103A600008B116A505E016A503E008B115A500E00C
:103A700015A521F010002060A069C01EA0610FB143
:103A8000401EA0612046AFF300804FB1D4E9012170
:103A900038469047206A401C2062C01C206206E025
:103AA000206AFAE7D4E9012115F8010B9047761E48
:103AB000F8D22046AFF30080BDE8F0814E414E00C1
:103AC0006E616E00494E4600696E66002DE9F04752
:103AD000814616468AB0354878440DC88DE80D00F9
:103AE00032487844801C03AC0DC884E80D0041F6D0
:103AF0009B300844372190FBF1F290FBF1F5A5F1E2
:103B0000800501FB12041B3C02D56442012000E049
:103B10000020DFF898A080460027FA44AAF1BE0AE8
:103B20000EE0E0070AD03246684607EB4701012362
:103B30000AEB810100F046FB8DE8070064107F1C52
:103B4000002CEED1194F7F44AE3F19E0E80715D0A5
:103B500007EB04100DF1180A90E80E008AE80E0039
:103B6000C068F04201D1981908903246012306A995
:103B700003A800F027FB03AB83E807006D10641C6B
:103B8000002DE3D14FF0010332466946B8F1000F32
:103B900003A802D000F001FB01E000F013FBC9E92B
:103BA0000001C9F808200AB0BDE8F087903600008F
:103BB00000487047C00000207546FFF7F9FFAE4689
:103BC00005006946534620F00700854618B020B529
:103BD000FCF7F4FABDE820404FF000064FF0000774
:103BE0004FF000084FF0000B21F00701AC46ACE8A5
:103BF000C009ACE8C009ACE8C009ACE8C0098D4612
:103C0000704710B50446AFF300802046BDE8104071
:103C1000FCF7C0BA4FF0013C50F8042B51F8043BBC
:103C20009A4221D1A2EB0C03934313EACC1317D190
:103C300050F8042B51F8043B9A4215D1A2EB0C0327
:103C4000934313EACC130BD150F8042B51F8043BE7
:103C50009A4209D1A2EB0C03934313EACC13DBD0B5
:103C60004FF00000704700BFD01A01BAB1FA81F1DD
:103C700001F0180122FA01F0CB40C1F12001DBB2C2
:103C8000C0B2C01A2CFA01F3D11A914311EAC31140
:103C9000E6D1704701491820ABBEFEE726000200BE
:103CA00070475FEA400C08BF91F0000F4FEA8C2389
:103CB0004FEAC12243EA51514FEA1C5018BF00F5A8
:103CC000F0404FEA300018BF41F000415FEA6C5C01
:103CD00000F02980BCF1FF3F08BF40F080407047F2
:103CE000130C06BF12044FF0100C4FF0000C130E13
:103CF00004BF12020CF1080C130F04BF12010CF1E7
:103D0000040C930F04BF92000CF1020CD30F04BFFC
:103D100052000CF1010C11464FF00002A0F11F00FF
:103D2000A0EB0C00704711F0004F08BF704731F056
:103D300000413FF4D5AF0B0C06BF09044FF0100C47
:103D40004FF0000C0B0E04BF09020CF1080C0B0F16
:103D500004BF09010CF1040C8B0F04BF89000CF1A6
:103D6000020CCB0F04BF49000CF1010CCCF1200375
:103D7000A0EB0C0022FA03F302FA0CF241EA030171
:103D800000F10100704720F07F4C80EA030023F02F
:103D90007F47ACEB070303F57C5300F0004003F1D1
:103DA000FF032DE980494FEA154B09B44FEA14434C
:103DB00025EA0B4E24EA03480FF2042606EB1327EC
:103DC00049083E785FEA320203FB0667C7F5000741
:103DD00007FB06F64FEA54374FEAD64606F10206CD
:103DE00007FB066CCCF1005C4FEA1C472CEA074C41
:103DF00007FB06F40CFB06F504EB15464FEA961696
:103E000034BF00204FF000404FEAD13706FB07FCDB
:103E10004FEA1C4C0CFB0BF7D21B03FB0CF761EBBE
:103E200007010CFB0EF7B0EB074072EB17420CFBDF
:103E300008F734BFA2EB0742B2EB074261EB174130
:103E40004FEA0C444FEA910706FB07FC4FEA1C4C73
:103E50000CFB0BF7B0EBC74072EB573203FB0CF7D0
:103E600034BFA2EBC742B2EBC74261EB57310CFB48
:103E70000EF7B0EBC70072EB57720CFB08F734BFBC
:103E8000A2EBC702B2EBC70261EB5771039F4FEA87
:103E9000816141EA921104EBCC044FEAD1374FEA39
:103EA000826206FB07FC42EA90124FEA80604FEA0A
:103EB0001C4C0CFB0BF7D21B03FB0CF761EB07014F
:103EC0000CFB0EF7B0EB074072EB17420CFB08F748
:103ED00034BFA2EB0742B2EB074261EB17414FEA56
:103EE0008C554FEA910704EB9C2406FB07FC4FEA34
:103EF0001C4C0CFB0BF7B0EBC74072EB573203FBCB
:103F00000CF734BFA2EBC742B2EBC74261EB5731AB
:103F10000CFB0EF7B0EBC70072EB57720CFB08F707
:103F200034BFA2EBC702B2EBC70261EB577115EBCE
:103F30004C254FEA816141EA92114FEA82624FEAD1
:103F4000D13742EA901206FB07FC44F100044FEA25
:103F500080604FEA1C4C0CFB0BF7D21B03FB0CF7E9
:103F600061EB07010CFB0EF7B0EB074072EB174259
:103F70000CFB08F734BFA2EB0742B2EB074261EB40
:103F8000174115EB1C154FEA813141EA92414FEA86
:103F9000823242EA90424FEA80304FEA0C7644F196
:103FA000000448EA03434EEA0B484FF0000EB2EB20
:103FB000080C71EB030724BF624639464EEB0E0E28
:103FC0004FF0000B0018524149414BEB0B0BB2EB89
:103FD000080C71EB03077BF1000B24BF62463946E6
:103FE0004EEB0E0E4FF0000B0018524149414BEBC7
:103FF0000B0BB2EB080C71EB03077BF1000B24BF3A
:10400000624639464EEB0E0E51EA020718BF46F0E3
:10401000010616EB0E7655F1000254F1000103D5AE
:10402000BDE88901BDE80088BDE88901BDE8004818
:10403000B619524141EB0101A3F1010370478080A1
:104040007F7E7D7C7B7A79787776767574737271F2
:1040500071706F6E6E6D6C6C6B6A6A6968686766AA
:1040600066656464636362616160605F5F5E5E5D3C
:104070005D5C5C5B5B5A5A595958585757565655B0
:1040800055555454535352525251515050504F4F12
:104090004F4E4E4D4D4D4C4C4C4B4B4B4A4A4A4962
:1040A00049494848484747474746464645454544A5
:1040B0004444444343434342424242414141002B32
:1040C0009C4630D477002BD01CB54FEA370703B499
:1040D0004FF010004FF01001BAF1000F06D0BCF104
:1040E000000FDCBF40F0080040F008014FF0000076
:1040F0000FBCBDE810400BF1010BBBF1010F08BF75
:104100005FEA170722BF12F1010211F101014FF01E
:10411000004143F1000300F0004043EA0000704713
:10412000F9D35708D0E746EA064613F1400F4FEAA5
:1041300016461FDD13F1200FDFBF16430A4600218C
:1041400020335B42BED0C3F1200746EA064602FA9E
:1041500007F74FEA164646EA0706C3F1200722FA98
:1041600003F201FA07F721FA03F14FF0000342EAE4
:104170000702A7E746EA020646EA06464FEA16465F
:1041800046EA0106BCBF46EA0646360C4FF000037D
:104190004FF000024FF0000194E72DE9804C9A4661
:1041A000934670B491E8380007C831EA400C48BF24
:1041B00034EA430C03D5FFF7E6FDFFF780FFF0BCC0
:1041C000BDE8008C2DE9804C9A46934670B491E886
:1041D000380007C810F0804F08BF13F0804F03D19C
:1041E00000F005F8FFF76BFFF0BCBDE8008C20F095
:1041F0007F4780EA030023F07F4C07EB0C03A3F515
:104200007C5300F00040A3F1FE0392F0000F00F099
:10421000B38095F0000F00F077802DE901494FEA57
:1042200011404FEA144621EA004800FB06FC24EA4C
:10423000064708FB06F607FB08F800FB07F718EB34
:1042400006484CEB164C4FEA124B18EB07484FEA66
:1042500015464CEB174022EA0B4E0BFB06FC25EAF9
:1042600006470EFB06F607FB0EFE0BFB07F71EEBE1
:10427000064E4CEB164C4FF000061EEB074E4CEB77
:10428000174B18EB0B0840F1000018EB0E0B58EB26
:10429000000840F100008F1A4FF000013CBFC943F5
:1042A000661B14BFB5EB040C00213CBFC943F61BD1
:1042B0004FEA17444EEA8E0E27EA04454FEA1C47A0
:1042C00004FB07622CEA074C05FB07F70CFB05F61D
:1042D00004FB0CFC16EB074642EB174216EB0C46B0
:1042E00042EB1C421BEB060658EB0202414146EA38
:1042F0009E0601D5BDE80189B619524141EB010185
:10430000A3F10103BDE801894FEA14454FEA1147C3
:1043100024EA054621EA074C05FB07F406FB07F7EC
:104320000CFB06F105FB0CFC11EB074144EB1744B9
:104330004FEA124711EB0C4144EB1C4422EA074CB4
:1043400005FB07F206FB07F70CFB06F605FB0CFC6A
:1043500016EB074642EB174216EB0C4642EB1C45A8
:104360006A1854F1000148BF7047B619524141EB39
:104370000101A3F10103704795F0000F37D04FEA18
:1043800011424FEA144721EA024624EA074C02FB95
:1043900007F106FB07F70CFB06F402FB0CFC14EB21
:1043A000074441EB17414FEA154714EB0C4441EB2E
:1043B0001C4125EA074C02FB07F506FB07F70CFB3F
:1043C00006F602FB0CFC16EB074645EB174516EB11
:1043D0000C4645EB1C42121951F1000148BF7047D1
:1043E000B619524141EB0101A3F1010370474FEAB5
:1043F00014454FEA114724EA054621EA074C05FB1C
:1044000007F106FB07F70CFB06F24FF0000605FB71
:104410000CFC12EB074241EB174112EB0C4251EB43
:104420001C4148BF7047921841EB0101A3F1010301
:104430007047490050EAC12018BF04204A0D18BF38
:1044400040F0010040F2FF72B2EB515F08BF40F054
:104450000200012808BF0520704700002DE9F74F32
:10446000144694B00021C4E902111599079121F076
:104470000045C9498D4206DC1599C4E9000117B011
:104480000020BDE8F08FC549DFF814A3A9423CDD48
:104490000799C44E0029C44FC44A1599534619DDE3
:1044A00001F002F8554506D0C14AC24B00F0FCFFAE
:1044B000C4E900010AE04FF0D352BE4B00F0F4FF14
:1044C00032463B4600F0F0FFC4E9000117B001207E
:1044D000BDE8F08F00F0D0FB554506D0B44AB54B8F
:1044E00000F0CAFBC4E900010AE04FF0D352B14B1F
:1044F00000F0C2FB32463B4600F0BEFBC4E90001BF
:1045000017B04FF0FF30BDE8F08FAB49A9421599C5
:1045100078DB21F0004183468846A84AA84B00F08A
:1045200083FE0022A74B00F0A7FB00F0B9FD099025
:1045300000F013FE06460F469C4A534600F074FEF8
:1045400043465A4600F0A4FF80468A46984A994B53
:104550003046394600F068FE2A0D01250B9242468E
:10456000534600F095FF032DC4E9000139D00B98A4
:10457000C1F30A51401A05EB45111139814230DA75
:104580009148C346784400EB0510CDF80CA00C9080
:10459000D0E900233046394600F046FE02460B467D
:1045A000049106905846039900F07EFF80468A46A3
:1045B00002460B465846039900F076FF049B069A84
:1045C00000F072FF83460C9803913946D0E902232C
:1045D000304600F029FE5A46039B00F065FF6D1C33
:1045E000BDE707980028A2BF099817B0BDE8F08F73
:1045F000616881F000416160099817B04042BDE8F0
:10460000F08FFFE784461598C1F31301C0F30A50F9
:10461000A0F2F5304FEA601800F01F06C6F1200046
:10462000139000200690079041F4801E05206D46EF
:1046300076B1664A08EB00017A4452F8213002EB69
:104640008101B3404A68139922FA01F1194305E048
:104650005F4908EB0002794451F82210A1FB0E27B4
:10466000A1FB0C131A449A4234BF0123002303EB2D
:10467000070A05EB8003D3E901B70F448F4234BF2B
:104680000121002193448B4411B1934502D903E0E9
:10469000934501D2012100E00021C3E901B7514453
:1046A00045F82010011EA0F10100C1DC0298059F11
:1046B00000F10050800F12900298DDE9035680004F
:1046C00000F04BFD834628460D9100F05DFD6FF034
:1046D0001D0201F04CFBCDE90E01304600F054FD07
:1046E0006FF03D0201F043FB80468A46384600F0F9
:1046F0004BFD6FF05D0201F03AFB07464246534620
:10470000119100F0B9FADDE90E2300F0B5FA5A462E
:104710000D9B00F0B1FA00250E465A4628460D9B27
:1047200000F0C2FEDDE90E2300F0BEFE4246534615
:1047300000F0BAFE3A46119B00F0AAFEDFF898A0FE
:10474000244A534600F070FD07468846234A244B0E
:104750003146284600F068FD3A46434600F08CFAA0
:10476000074688464FF0A84253463146284600F097
:104770005BFD3A46434600F07FFA159A12F0004F6F
:1047800004D0129A81F0004152421292C4E9000111
:10479000129817B0BDE8F08FFB21E93F7CD90240A9
:1047A000FB21F93F7370032E8A19A33B000040548C
:1047B0003163621A61B4D03DFB21394183C8C96DB0
:1047C000305FE43F0000E03F782A0000F429000059
:1047D000D6290000182D4454FB21F93D3326A6119B
:1047E000460B113C2DE9FF4D21F0004807460C46D1
:1047F000B8F1795F08DA00F053FC002801BF00200F
:10480000324904B0BDE8F08D3A46234610461946B9
:1048100000F00AFD054602462D480E460B460621CD
:10482000784400F05DF82A46334600F0FDFCDDE9EF
:10483000022382468B463846214600F0F5FC0446AA
:104840000F4652465B462846314600F0EDFC2246B4
:104850003B4600F029FE07468A464FF0FF322846C5
:10486000314601F084FA1B4A90450ADA3A4653462B
:1048700000F01AFE04B00022BDE8F04D134B00F02A
:1048800007BE154A4245A8BFA8F500154FF0000421
:10489000B8BF124D22462B4600F006FE064688465B
:1048A00022462B460020094900F0FEFD04460D4635
:1048B0003A4653463046414600F0F6FD04B02246E3
:1048C0002B46BDE8F04D00F0E3BD00000000F03FD6
:1048D000AC2700003333D33F0000E93F0000D23F54
:1048E0002DE9F0414F1E00EBC7010446D1E900015C
:1048F00015461E4637F006020DD02A46334600F014
:1049000093FC7F1E04EBC703D3E9002300F0B4F946
:1049100037F00602F1D1022F25D0042F13D0062F35
:1049200018BFBDE8F0812A46334600F07DFCD4E98B
:104930000A2300F0A1F92A46334600F075FCD4E9B9
:10494000082300F099F92A46334600F06DFCD4E9BB
:10495000062300F091F92A46334600F065FCD4E9BD
:10496000042300F089F92A46334600F05DFCD4E9BF
:10497000022300F081F92A46334600F055FCD4E9C1
:104980000023BDE8F04100F077B900002DE9FF4DAC
:10499000054621F0004084B00C46B0F1795F0BDA97
:1049A0002846FFF746FD042808BF00F06FF82846A8
:1049B00008B02146BDE8F08D2A460B46104600F0AF
:1049C00033FC06460F462A46234600F02DFC80465F
:1049D00026488A4632463B4605217844FFF780FF49
:1049E00083461098029160B3214A224B40465146BB
:1049F00000F01AFCCDE900015A4640465146029BA0
:104A000000F012FC82468846DDE906014FF0FF32D5
:104A100001F0ADF95246434600F046FD32463B46B2
:104A200000F002FCDDE9062300F03EFDDDE9002395
:104A300000F03AFD08B02A462346BDE8F04D00F0EC
:104A400027BD0B465A463046394600F0EDFB084A72
:104A5000084B00F011F94246534600F0E5FB08B060
:104A60002A462346BDE8F04D00F006B9EA260000CC
:104A7000495555555555C5BF012201F078B9002259
:104A800013461046114600F0B3B90000024A002058
:104A9000110701F06CB9000001FDFFFF30380A2852
:104AA00001D20120704700207047000000B5244B60
:104AB00021F0004287B09A42DCBF0022134629DD74
:104AC000204B9A4208D140B94FF00100FEF73DFD5E
:104AD000FFF7D5FF07B000BD03DBFFF7CDFF07B041
:104AE00000BD02AAFFF7BAFC10F0030104BF0DF1EC
:104AF000080C9CE80F000DD0012001290ED00229DE
:104B000014D00DF1080C00909CE80F00FFF73EFF59
:104B100007B000BDFFF766FE07B000BD0DF1080C41
:104B200000909CE80F00FFF731FF05E00DF1080C45
:104B30009CE80F00FFF756FE07B081F0004100BD72
:104B4000FB21E93F0000F07F00B5254B21F000423A
:104B500087B09A4203DC0022134600922BE0214BDF
:104B60009A4208D140B94FF00100FEF7EEFCFFF782
:104B700086FF07B000BD03DBFFF77EFF07B000BD77
:104B800002AAFFF76BFC10F003014FF001000DD0FB
:104B9000012914D002291AD00DF1080C9CE80F004D
:104BA000FFF720FE07B081F0004100BD0DF1080CB9
:104BB00000909CE80F00FFF7E9FE07B000BD0DF183
:104BC000080C9CE80F00FFF70DFE07B000BD0DF1CB
:104BD000080C00909CE80F00FFF7D8FEE2E7000009
:104BE000FB21E93F0000F07F10B500290AD00878CA
:104BF000002807D005487844FFF70CF8002801D0BA
:104C0000002010BD0248784410BD0000AE25000011
:104C1000A625000021F00042A2F16052B2F5801FEB
:104C200001F0004328BFD2F17F6C0BD95FEA001C72
:104C300043EAC20242EB507018BF704728BF20F011
:104C400001007047B2F5801FBCBF184670474FEA9D
:104C5000410C1CF5001F02D2084600F09EBF70B543
:104C600000F08CFB00000089FFF7F6BF4FF000401A
:104C7000A0F580007047000010B591EA030F48BF0F
:104C800083F0004300F11884841A71EB030C05D201
:104C9000121943EB0C03001B61EB0C01DFF824E15C
:104CA0004FEA1154A4EB135C1EEA430F18BF9EEAAF
:104CB000445F73D023EA0E03DCF1200E21EA045195
:104CC00043F4801332D322FA0CFE10EB0E0023FAC9
:104CD0000CFE41EB0E01CCF1200E03FA0EFE10EBA0
:104CE0000E0051F10001B1F5801FCCF1200E32D23F
:104CF00001EB045112FA0EF2BDE8104058BF7047A4
:104D0000401C38BF5FEA420218BF7047002814BF3A
:104D100020F0010041F100014FEA410313F5001FAB
:104D200038BF7047A1F1C04100F076BB012A43EBC8
:104D30000302ACF1200CDCF11F0E32BF4FF0000E6D
:104D400023FA0CF310EB030041EB0451B4EB115FB9
:104D5000D0D0A1EB045101F5801149085FEA300081
:104D600001EB04510ED350F1000038BF12FA0EFED1
:104D700008D1BDE81040C9E7401C38BF5FEA4202D5
:104D8000CAD1C3E7BDE810404FEA410313F5001F45
:104D900038BF7047A1F1C04100F03EBB9EEA445FBE
:104DA00008D011EA5E0FBDE8104004BF01F00041D9
:104DB00000207047BDE8104070B500F0DFFA00BF7A
:104DC00064FBBE3E0000E0FF02494FF0000000F02F
:104DD0009CBF00BF0000F87F491058BFC1F140419F
:104DE0005B1058BFC3F140438B42EFF30080704724
:104DF0002DE9C04130B4DFF8A0C23CEA111418BF5D
:104E00003CEA131400F0EC8081EA03051CEA11145B
:104E100044EAD57418BF1CEA131500F0C780A4EB50
:104E200005044FF0004545EAC12145EAC32341EAA4
:104E3000505143EA525304F17F74994204F500340F
:104E40004FEAC0204FEAC22208BF904200F09C8087
:104E50004FEA13650FF24016765D4FEA134506FBE5
:104E600005F7C7F1807706FB07F74FEAD737A7FBAF
:104E700003687642C8F58038A7FB06CE38BFA8F194
:104E8000010807FB08E64FF0000EA6FB028CE6FBCC
:104E900003CEDCF1000CCEF1004E38BFAEF1010EB6
:104EA000A6FB0C584FF000074FF00005E6FB0E87FD
:104EB000A1FB08C6A0FB07CE16EB0E0645F10005C8
:104EC000E1FB076515F1E04E7EBFA4F580345FEA93
:104ED00046066D4116F1800745F100054FEA172798
:104EE0004FEA066647EA0567A6F1DE46B6F1805F3F
:104EF0004FEA15251FD9384624F0010C05EBC47183
:104F0000BCF1FE6F01EB0C1102D8F0BCBDE80081D2
:104F100024425CBF01F5801E9EEAC47F02D4F0BC2F
:104F2000BDE80081244238D4F0BCA1F1C041BDE805
:104F3000004100F071BA4FEAD22242EA43524FEAEE
:104F4000D323A7FB02864FEAD02040EA415007FB5B
:104F500003661EEA0E0F4FEAD12105FB026658BF19
:104F6000A6EB0056B6EB00564FEA520E4EEAC37E51
:104F700018EB0E0E56EB530EBDD518EB02085E4132
:104F80007F1C55F10005B6E74FF480154FF0000780
:104F90004FF000064FF00008ADE7F0BC4FF0000006
:104FA00001F1C04101F00041BDE8008111EA0C1F90
:104FB0000CEA131500D00CE013EA0C1F00F025805A
:104FC0004FF00000F0BC81EA030101F00041BDE8B0
:104FD0000081F0BCBDE8004181EA030100F01CBA89
:104FE000F0BCBDE8004170B500F0C8F9097EFC3E98
:104FF00000F007B881EA03014FF0000001F0004122
:10500000704781EA030100F007BAF0BCBDE8004137
:105010004FF0000021497047FFFDFBF9F7F5F4F26E
:10502000F0EEEDEBE9E8E6E4E3E1E0DEDDDBDAD843
:10503000D7D5D4D3D1D0CFCDCCCBCAC8C7C6C5C4A1
:10504000C2C1C0BFBEBDBCBBBAB9B8B7B6B5B4B3B8
:10505000B2B1B0AFAEADACABAAA9A8A8A7A6A5A4A3
:10506000A3A3A2A1A09F9F9E9D9C9C9B9A99999867
:105070009797969595949393929191908F8F8E8E0A
:105080008D8C8C8B8B8A8989888887878685858497
:1050900084838382828181800000FF070000F87F83
:1050A0004FEA41034FEA5353A3F58063D3F11E0344
:1050B000C8BFD3F1210C0CDD4FF0004242EAC122FF
:1050C00042EA505232FA03FC8CEAE17CACEBE1702C
:1050D0007047102BC4BF0020704703F5787CBCF1EB
:1050E000FF3F04D06FF0004282EA2100704770B5A4
:1050F00000F044F94992248000207047F2E7000054
:105100004FEA1153A3F58063D3F11E03A8BFD3F177
:10511000200C08DB4FF0004242EAC12252EA505212
:1051200032FA03F0704709420BD4102BC4BF0020A1
:10513000704703F5787CBCF1FF3F05D04FF0FF309E
:1051400070474FF00000704770B500F017F900BFCE
:105150004992248000207047F0E710F0004248BFD9
:105160004042B0FA80F310FA03F10AD0C3F11D03F4
:1051700003F580634FEA415002EB035202EBD12169
:1051800070474FF000007047B0FA80F310FA03F157
:105190000AD0C3F11D0303F580634FEA41504FEA83
:1051A000035202EBD12170474FF00000704700001E
:1051B00051EA030C17D41CF5801F58BFBCF5801FA3
:1051C00000F10680994218BF704708BF90427047AF
:1051D00007D711F5801F58BF13F5801F19D49942C6
:1051E0007047894270471CF5801F08D5BCF5801FA9
:1051F000F7D58B4218BF704708BF824270474FF403
:10520000001C1CEB410F38BF1CEB430F01D28B423B
:10521000704770B500F0B2F8922449004FF0005189
:105220004FF08053FFF7D8BDDFF848C170B51CEAD6
:10523000111E1EBF1CEA13159EEA0C0F95EA0C0FF7
:1052400000F06F8081EA030423EA4C134EEAD47E17
:1052500021EA4C1141F4801143F48013AE44A1FBC8
:10526000024CA0FB0365AEF17F7E361955EB0C05B1
:10527000A1FB034C4CF10003A0FB021C16EB0C0637
:10528000654153F10003094218BF46F0010613F4CB
:10529000007F0BD14FEA03314FEA0530340341EA76
:1052A000155140EA16506FF003020AE04FEAC3219D
:1052B0004FEAC520F40241EA555140EA56506FF0DA
:1052C000020202EB2E4201EB025585EACE710AD0B2
:1052D0005FEA440C18BF24F0004450F1000041F193
:1052E000000120EAD47040F2FE7C624500D270BD1D
:1052F000A84214BF4FF080444FF04044002E08BF36
:105300000024BEF1806FA8BFA1F1C041BDE870408C
:1053100080F282804FF0000001F1C04101F00041B5
:1053200070479EEA0C0F0CEA131518BF95EA0C0F94
:1053300006D04FF0000081EA030E0EF0004170BD70
:1053400000F01CF88900013E00F007B800F009B831
:105350004FEA430C5FEA5C5C08D081EA030100F08D
:105360005BB84FEA410C5FEA5C5CF6D14FF000009D
:10537000014970470000FF070000F87F0EF1020EA0
:105380002EF0030E5EF8046B364205D4012A43EB7F
:10539000030515F5001F12D8012841EB010C1CF57F
:1053A000001F0CD80ED14FEAD17C15F5001F0CEB75
:1053B0004C0C0CF1020C08BF4CEBD37C04E04FF01A
:1053C000080C01E04FEAD37C0CEB4C0526FA05F6FD
:1053D00006F00706B6F1040C06D20EEB860CBDE80B
:1053E00070404CF0010C6047DFE80CF0090B020242
:1053F0004FF000414FF00000A1F5002170BD1946AB
:105400001046012851EB010418BFD4F5001484BFE5
:10541000002001F0004170BD0808A0F500114FEA1E
:105420003101704753EA010C17D41CF5801F58BF97
:10543000BCF5801F00F106808B4218BF704708BF83
:105440008242704707D713F5801F58BF11F5801FA0
:1054500019D48B4270479B4270471CF5801F08D5BA
:10546000BCF5801FF7D5994218BF704708BF90421E
:1054700070474FF4001C1CEB430F38BF1CEB410F6F
:1054800001D2994270470FB40CBC03BCFFF7C1BEF8
:1054900091EA030F10B581F000413FF5F5AB83F0C1
:1054A000004300F009B8000010B591EA030F48BFAF
:1054B00083F000433FF5E8AB841A71EB030C07D28D
:1054C00012198CF0004C43EB0C03001B61EB0C0138
:1054D000DFF8A4E14FEA1154A4EB135C1EEA430F7A
:1054E00018BF9EEA445F00F0B08023EA6E03524288
:1054F00021EA0451C3EB6E0338BF5B1EDCF1200EC2
:1055000025D322FA0CFE10EB0E0043FA0CFE41EB01
:105510000E01CCF1200E03FA0EFE10EB0E0051F13D
:105520000001CCF1200E29D412FA0EF201EB045145
:10553000BDE8104058BF7047401C1CBFB2F1004F7F
:10554000704700280CBF491C20F00100704712EB87
:10555000020E43EB030218BF4FF0010E4EEA420267
:10556000ACF1200CDCF11E0E54D943FA0CFE10EB0A
:105570000E0051F1FF31CCF11E0ED5D50EF1010E0A
:1055800012FA0EFE404141EB010101EB445C5FEA7F
:105590005C5C10D910EBDE7001EB045138BFBEF13A
:1055A000004FBDE8104018BF704700280CBF491CD1
:1055B00020F00100704730D24FEAD42C11F50011D1
:1055C00024F400641BD0B1FA81F20B3AA41AA41E91
:1055D000D2F12003914030FA03F31943904001EBDC
:1055E000CC71002C01EB0451BDE81040A8BF7047FE
:1055F00001F1C0414FF0000001F000417047B0FAE6
:1056000080F310FA03F100D110BDE41A173C4805ED
:10561000C90AE4E701EB045110BD491001EB045144
:10562000BDE810404FEA300002E04FF00001704743
:105630004A0008BF0042F8D0B2F5001F28BF7047EB
:1056400001F000414FF0000070479EEA445F07D030
:1056500011EA5E0FBDE8104004BF00210020704732
:10566000BDE8104070B5FFF789FE00BF40DFF63E91
:1056700083F00041104670470000E0FF43004FEA0E
:10568000D30C4FEA3C0C43401FBF40070CF1605164
:1056900013F0FE4F70471CF0006F03D100200CF098
:1056A000004170470CF0004343EA507010B540EAE7
:1056B000CC0000F02CFA00BF000000924FEA00017D
:1056C000FFF7AABE4FF000414FF00000A1F5002106
:1056D0007047000090EA010F48BF81F0004100F1DF
:1056E000A482421A3CBF801A89184FEAD0524FF068
:1056F0007F4C1CEA410FA2EBD15318BF9CEA026F0A
:1057000000F03B804FF0004C4CEA00204CEA0121B5
:1057100021FA03FC10EB0C0C1ED202F1FF325FEAFF
:105720001C2040EBC25038BF70471CF07F0F4FEA7F
:10573000400C18BFBCF17F4F38BF7047C3F1200346
:10574000994008BF20F00100BCF17F4F38BF70477F
:10575000A0F1C04000F021BA4FEA3C00000A40EB43
:10576000C25028BF1CF0FF0F4FEA400CE6D018BF14
:10577000BCF17F4F38BF7047EAE79CEA026F05D063
:1057800010EA5C0F08BF00F00040704710B500F051
:10579000BEF900BF64FBBE3E401058BFC0F14040A0
:1057A000491058BFC1F140418142EFF3008070477A
:1057B0004FF47F0C1CEAD0121EBF1CEAD11392EAF0
:1057C0000C0F93EA0C0F00F0858090EA010F48BFA0
:1057D00042F4807240F4000C41F400002CF07F4150
:1057E00020F07F4000B58142A2EB03020FF2081CBB
:1057F000ACEB504EC0F100009EF800E04FEA4E0EB8
:1058000000FB0EFC38BF49004FEA2C1C02F5FA02DF
:105810000CFB0EF34FEACE1E4FEA112C4FEAC121CA
:105820000EEB635E42EB22420EFB0CFC4FEA1C5374
:1058300000FB03114FEA112C4FEA01310EFB0CFC67
:105840004FEADC4C00FB0C11C14228BF09184CEB9D
:1058500003335DF804EB10EB410143EBC250B2F5AA
:105860007C0F38BF704729D512F0F00F1CBF00F134
:10587000C04000F0004070470081828384858687A5
:1058800088898B8C8D8E8F919293959697999A9CFF
:105890009D9FA0A2A3A5A7A8AAACAEB0B2B3B5B76E
:1058A000B9BCBEC0C2C5C7C9CCCED1D4D7D9DCDF44
:1058B000E2E6E9ECF0F3F7FAFE0000004FEA400CF4
:1058C0000CF1807CBCF17E4F28BF7047B0F1C04026
:1058D00000F063B990EA010F0CEAD11348BF42F41B
:1058E0008072624538BF634507D213F47F0F16D02C
:1058F00080EA010000F00040704710B500F007F9A1
:10590000097EFC3E00F005B880EA010000F000408E
:10591000704780EA010000F0004000F03EB912F448
:105920007F0F04BF0248704780EA010000F035B9DC
:105930000000C07FC10DD1F19E0206DB4FEA0023BB
:1059400043F0004323FA02F07047004207D54FEAC4
:105950004001B1F1FE4F02D24FF00000704710B588
:1059600000F0D5F849922480002070476FEA2000AB
:105970007047000010F0004148BF4042B0FA80F389
:1059800010FA03F2C3F19D030BD051EAC35101EBAE
:105990001220530638BF704700F1010008BF20F005
:1059A0000100704750EA010C00F113801CF5000F54
:1059B00058BFBCF5000F01D48842704707D710F5D7
:1059C000000F58BF11F5000F15D488427047894267
:1059D00070471CF5000F04D5BCF5000FF7D58142C8
:1059E00070474FF0807C1CEB400F38BF1CEB410F21
:1059F00001D28142704710B500F089F89224490025
:105A00004FF000504FF08051FFF7C6BE4FF47F0CAF
:105A10001CEAD0121EBF1CEAD11392EA0C0F93EAC3
:105A20000C0F00F0478090EA010F48BF42F48072EB
:105A30004FF0004C4CEA00204CEA012102EB03023B
:105A4000A0FB0113A2F50002002918BF43F00103D7
:105A50005B0028BF4FEA330342EB22425FEA132C7C
:105A60004CEBC2502EBFBCEB436FB2F57C0F7047BE
:105A70004FEA036CBCF1004F08BF20F00100B2F503
:105A80007C0F38BF70470BD582F0FF0212F5803FC4
:105A9000C8BF704700F1C040D8BF00F00040704759
:105AA00000F5000C5FEA4C0C48BF7047B0F1C040F5
:105AB00000F073B890EA010F0CEAD11348BF42F42A
:105AC0008072624538BF634504D280EA010000F06D
:105AD0000040704710B500F01AF800BF8900013E81
