:020000040800F2
:10000000E0200020E11E0008E7010008E9010008E7
:10001000EB010008ED010008EF01000800000000FE
:10002000000000000000000000000000F1010008D6
:10003000F301000800000000F5010008DF230008BC
:10004000FB1E0008FB1E0008FB1E0008FB1E00082C
:10005000FB1E0008FB1E0008FB1E0008FB1E00081C
:10006000FB1E0008FB1E0008FB1E0008FB1E00080C
:10007000FB1E0008FB1E0008FB1E0008FB1E0008FC
:10008000FB1E0008FB1E0008FB1E0008FB1E0008EC
:10009000FB1E0008FB1E0008FB1E0008FB1E0008DC
:1000A000FB1E000829280008FB1E00087128000814
:1000B000B326000823270008FB1E0008FB1E0008CB
:1000C000FB1E0008FB1E0008FB1E0008FB1E0008AC
:1000D000FB1E0008992D0008392E0008F72E000895
:1000E000FB1E0008FB1E0008FB1E0008FB1E00088C
:1000F000FB1E0008FB1E0008FB1E0008FB1E00087C
:10010000FB1E0008FB1E0008FB1E0008FB1E00086B
:10011000FB1E0008FB1E0008FB1E0008FB1E00085B
:10012000FB1E0008FB1E0008FB1E0008FB1E00084B
:1001300000F002F800F048F80AA090E8000C8244B1
:100140008344AAF10107DA4501D100F03DF8AFF28E
:10015000090EBAE80F0013F0010F18BFFB1A43F0A5
:10016000010318478C810000AC810000103A24BFC5
:1001700078C878C1FAD8520724BF30C830C144BF0C
:1001800004680C607047000000230024002500264E
:10019000103A28BF78C1FBD8520728BF30C148BFEA
:1001A0000B607047642905F0BD81002070471FB5C2
:1001B00005F0AEFE04000020002106F043FD401CC7
:1001C00060601FBD10B510BD05F06AFE1146FFF757
:1001D000EEFF04F0E3FE05F091FE03B4FFF7F2FF3B
:1001E00003BC05F0D9FE7047FEE7FEE7FEE7FEE739
:1001F00070477047704700000CB500214B480191D3
:100200000091026842F4803202604FF4A0630268F9
:1002100002F400320092019A521C0192009A12B923
:10022000019A9A42F3D10268920333D501210091D9
:100230003F490A6842F010020A600A6822F003028D
:100240000A600A6842F002020A604168416041683F
:100250004160416841F480614160416821F47C1152
:100260004160416841F4E8114160016841F08071EA
:10027000016001688901FCD5416821F003014160FA
:10028000416841F0020141604168C1F381010229E6
:10029000FAD10CBD00910CBD244810B5016841F0A5
:1002A000010101604168234A114041600168224A0E
:1002B00011400160016821F480210160416821F44E
:1002C000FE0141604FF41F018160FFF795FF1B495C
:1002D0004FF00060086010BD144910B54868184A16
:1002E00010F00C03174803D0042B01D0082B0AD0C0
:1002F00002604968134AC1F30311121D515C026880
:10030000CA40026010BD4A684B6802F470124FF098
:10031000020413F4803F04EB924202D04B689B032B
:1003200001D5094B00E0064B5A43E1E700100240BB
:10033000002002400000FFF8FFFFF6FE08ED00E09D
:1003400000127A000000002000093D00914910B51C
:10035000884206D10121042000F04BFA002104203C
:100360003BE08D49884206D10121082000F041FA86
:100370000021082031E08949884206D1012110205E
:1003800000F037FA0021102027E08549884206D185
:100390000121202000F02DFA002120201DE08149BC
:1003A000884206D10121402000F023FA002140209C
:1003B00013E07D49884206D10121802000F019FA1E
:1003C0000021802009E0794988420AD18415012161
:1003D000204600F00EFA00212046BDE8104000F053
:1003E00008BA10BD10B50121084600F002FA00213C
:1003F000BDE81040012000F0FCB9F0B5CA78002536
:1004000002F00F03D20601D58A7813430A784FF021
:100410000F0E12F0FF0F4FF001021DD0D0F8004078
:100420000F8802FA05F63740B74211D14FEA850C22
:100430000EFA0CF724EA070703FA0CF43C43CF78D2
:10044000282F02D0482F02D002E0466100E006616A
:100450006D1C082DE4D304600C88FF2C1ED9446861
:100460005FF0000606F1080702FA07F50F882F4033
:10047000AF420FD14FEA860C0EFA0CF7BC4303FAD9
:100480000CF73C43CF78282F00D14561CF78482F17
:1004900000D10561761C082EE4D34460F0BD4FF610
:1004A000FF710180022181700421C17070470246F2
:1004B000002092680A4200D001207047806880B214
:1004C000704702460020D2680A4200D001207047DF
:1004D000C06880B2704701617047416170470AB1DE
:1004E0000161704741617047C160704741F48032DB
:1004F0008261816182618169806970472C4B10B58E
:100500001A684FF68074224042EA001008431860CF
:1005100010BD2849C8617047F0B5254C002801DAA4
:10052000E36900E06368420D120185B2C0F3015730
:100530009540C0F30346032F05D0C2020AD503221B
:10054000B240934307E023F07062636823F0706366
:10055000636002E0AB4343F0706201B12A430028BC
:1005600001DAE261F0BD6260F0BD10B58A0721F0EA
:1005700003040F49130F21440F228C689A409443BF
:100580008C608A68984002438A6010BD0949C1F8AE
:10059000DC00704700080140000C014000100140E1
:1005A0000014014000180140001C014000200140DF
:1005B0000000014000002042A448016841F0010110
:1005C00001604168A24A114041600168A14A11409E
:1005D0000160016821F480210160416821F4FE017D
:1005E00041604FF41F018160704798490A6822F406
:1005F00080320A600A6822F480220A60B0F5803FE7
:1006000007D0B0F5802F03D1086840F4A02008601F
:100610007047086840F48030F9E70246002053092B
:100620008A49012B0AD0022B0AD0496A02F01F0224
:10063000012393400B4200D0012070470968F5E781
:10064000096AF3E718B500204FF4A0640090312048
:10065000FFF7E3FF0099491C0091A14201D0002857
:10066000F5D03120FFF7D9FF002800D0012018BDB8
:1006700076490A6822F0F80242EAC0000860704732
:10068000754908607047714A5368084323F47C1326
:100690001843506070477049086670476B4A51684C
:1006A00021F003010143516070476848406800F041
:1006B0000C007047654A516821F0F0010143516018
:1006C0007047624A516821F4E0610143516070470C
:1006D0005E494A6822F4605242EAC00048607047AE
:1006E0005A4A0029517A01D0014300E081435172F6
:1006F00070475949C1F8D8007047544A516821F4ED
:1007000040410143516070475049002281F8202048
:1007100081F82020012802D0042802D1052081F888
:10072000200070474D490860704748490A6A0243F3
:100730000A627047494944390860704730B54349F7
:100740004A6812F00C03464A03D0042B01D0082B50
:1007500021D002604A680F23424C03EA1212A35CC4
:100760000268DA4042604B68072505EA1323E35C20
:1007700022FA03F383604B6805EAD323E35CDA4093
:10078000C2604968032303EA9131231F595CB2FB1D
:10079000F1F1016130BD4A684B6802F470124FF00C
:1007A000020413F4803F04EB924202D04B689B0397
:1007B00001D52D4B00E02A4B5A43CAE7234A0029B2
:1007C000516901D0014300E08143516170471F4AE4
:1007D0000029916901D0014300E081439161704794
:1007E0001A4A0029D16901D0014300E08143D16157
:1007F0007047164A0029D16801D0014300E08143C7
:10080000D1607047114A0029116901D0014300E00D
:1008100081431161704711494039086070470E49A2
:10082000C86470470949C87170470848416A41F077
:10083000807141627047054A0146002092680A4271
:1008400000D00120704701498872704700100240B3
:100850000000FFF8FFFFF6FE000042428004424223
:1008600000127A001800002000093D0028490843C2
:1008700028490860704770B50F23C47801780122B9
:10088000F4B1244C2468457804F4E064C4F5E064D1
:10089000240AC4F10406E3408478B5401C402C438C
:1008A00001F1E021230181F80034007800F01F01FC
:1008B0008A404009800000F1E020C0F8002170BDAE
:1008C00001F01F0082404809800000F1E020C0F8DC
:1008D000802170BD104A114001430E48001F016085
:1008E00070470C4A121D0029116801D0014300E035
:1008F0008143116070474FF0E0210428086903D05C
:1009000020F004000861704740F00400FAE700009E
:100910000000FA050CED00E080FFFF1FC44910B590
:1009200088420AD101218C032046FFF762FF20464E
:10093000BDE810400021FFF75CBFBE49884202D1EC
:1009400001214C0410E0BC49884202D101218C04F1
:100950000AE0BA49884202D10121CC0404E0B84936
:1009600088420AD101210C052046FFF74BFF2046A3
:10097000BDE810400021FFF745BF10BD30B504466B
:10098000008A85B00D464CF6FF710840E9880143A6
:100990002182A1894EF6F3100140A8882A891043CC
:1009A0006A890A431043A081A08A4FF6FF4108409C
:1009B000A9890143A1826846FFF7C0FE9C48844292
:1009C00001D1039800E00298A189090400EBC0015D
:1009D00001EB0010296801D5490000E08900B0FB57
:1009E000F1F06422B0FBF2F109010B096FF0180578
:1009F0006B4300EB8300A3891D044FF0320306D53F
:100A000003EBC000B0FBF2F000F0070005E003EBE1
:100A10000010B0FBF2F000F00F000843208105B099
:100A200030BD4FF41651016000218180C1800181E9
:100A30000C2242818181704710B5038A4FF2FF0278
:100A400013400A884C8822438C88C9880C4322436F
:100A50001A43028210BD0021018041808180C18043
:100A600070470029818902D041F4005101E021F44E
:100A700000518181704710B5C1F3421301F01F048A
:100A80000121A140012B07D0022B07D01430002AEE
:100A9000026805D00A4304E00C30F8E71030F6E7AE
:100AA0008A43026010BD002A828A01D00A4300E016
:100AB0008A4382827047028A22F00F020282028AEF
:100AC0000A4302827047828922F40062828182890D
:100AD0000A43828170470029818902D041F00201D6
:100AE00001E021F0020181817047028A22F0200298
:100AF0000282028A0A43028270470029018A02D0D8
:100B000041F4804101E021F4804101827047C1F34A
:100B10000801818070478088C0F308007047818990
:100B200041F0010181817047028BD2B20283028BB6
:100B300042EA012101837047028B02F47F42028363
:100B4000028B0A43028370470029818A02D041F058
:100B5000200101E021F02001818270470029818A73
:100B600002D041F0100101E021F0100181827047B4
:100B70000029818A02D041F0080101E021F008013A
:100B8000818270470029818902D041F4004101E04F
:100B9000C1F30E01818170470029818A02D041F49E
:100BA000006101E021F4006181827047828A22F0B5
:100BB00004028282828A0A43828270470029818AE3
:100BC00002D041F0020101E021F002018182704770
:100BD0000246002012880A4200D001207047C94313
:100BE0000180704730B501F01F0201240025C1F3D8
:100BF000421304FA02F2012B0FD0022B0FD0838A8A
:100C00004FEA11210088134204FA01F400EA0400BB
:100C100001D000B10125284630BD8389F0E7038A61
:100C2000EEE70A0A01219140C943018070470000A4
:100C3000003801400044004000480040004C0040A3
:100C400000500040F94910B5884202D10121C41476
:100C500086E0B0F1804F09D0F54988420DD10121DD
:100C60000220FFF7CFFD0021022064E001210846A9
:100C7000FFF7C8FD002101205DE0EE49884206D162
:100C800001210420FFF7BEFD0021042053E0EA49C2
:100C9000884206D101210820FFF7B4FD0021082079
:100CA00049E0E649884206D101211020FFF7AAFD5C
:100CB000002110203FE0E249884206D10121202096
:100CC000FFF7A0FD0021202035E0DE49884202D157
:100CD0000121441444E0DC49884202D10121CC04C2
:100CE0003EE0DA49884202D101210C0538E0D849BA
:100CF000884202D101214C0532E0D649884206D112
:100D000001214020FFF77EFD0021402013E0D24961
:100D1000884206D101218020FFF774FD0021802048
:100D200009E0CE4988420AD1841501212046FFF707
:100D300069FD00212046BDE81040FFF763BDC849AA
:100D4000884202D101210C040AE0C649884202D13E
:100D500001214C0404E0C44988420AD101218C04D9
:100D60002046FFF746FD2046BDE810400021FFF772
:100D700040BD10BD30B50288AC4BB24C98420DD08E
:100D8000A0420BD0B0F1804F08D0A94DA84205D0A9
:100D9000A84DA84202D0A84DA84203D122F0700568
:100DA0004A882A43A54DA84206D0A54DA84203D0A3
:100DB00022F44075CA882A4302808A8882850A887C
:100DC000028598420AD0A04208D0A54A904205D098
:100DD000A44A904202D0A44A904201D1097A0186E5
:100DE0000121818230BD30B5028C22F001020284E3
:100DF000028C8388048B22F0020224F073050C8895
:100E00002C430D8915434A882A43884DA8420BD0AC
:100E10008C4DA84208D0924DA84205D0914DA842D1
:100E200002D0914DA8420DD122F008054A8923F441
:100E300040732A4322F004058A882A438D891D4382
:100E4000CB892B4383800483C9888186028430BD8B
:100E500070B5028C22F010020284028C8488038B0D
:100E60000D8823F4E6464FF6FF7303EA0525354364
:100E70000E8922F0200203EA061616434A8803EA86
:100E800002123243694EB04202D06E4EB04215D1CA
:100E900022F080064A8924F4406403EA02123243B5
:100EA00022F040068A8803EA021232438E8903EA5E
:100EB00086062643CC8903EA840434438480058370
:100EC000C9880187028470BD70B5028C22F48072DB
:100ED0000284028C8488838B0D8823F073031D4366
:100EE00022F400730E894FF6FF7202EA06261E43B3
:100EF0004B8802EA032333434C4EB04202D0514E9A
:100F0000B04215D123F400664B8924F4405402EA20
:100F10000323334323F480668B8802EA032333439D
:100F20008E8902EA06162643CC8902EA0414344369
:100F300084808583C9888187038470BD70B5028CE5
:100F400022F480520284048C8288838B0D8823F4DF
:100F5000E6464FF6FF7303EA0525354324F40056B1
:100F60000C8903EA043434434E8803EA06362643E8
:100F70002E4CA04202D0334CA04205D122F4804432
:100F80008A8903EA8212224382808583C988A0F875
:100F90004010068470BD828B22F440628283828B73
:100FA0004FF6FF7303EA01210A4382837047828B65
:100FB00022F00C028283828B0A4382837047028B69
:100FC00022F440620283028B4FF6FF7303EA012191
:100FD0000A4302837047F0B5048C24F010040484A3
:100FE000078B048C4FF6FF7527F4734705EA03332C
:100FF0003B4305EA02221A430C4B05EA01169842CC
:101000000ED0104B98420BD0B0F1804F08D0084B57
:10101000984205D0074B984202D0074B984225D101
:1010200024F02001314341F0100124E0002C014064
:101030000004004000080040000C00400010004088
:101040000014004000340140004C014000500140B9
:101050000054014000180040001C004000200040E7
:1010600000400140004401400048014024F0A0033A
:101070000B4343F0100102830184F0BD028B22F088
:101080000C020283028B0A430283704770B5048C02
:1010900024F001040484058B048C4FF6FF7606EAE5
:1010A0000313134325F0F305F94A2B4390420ED066
:1010B000F84A90420BD0B0F1804F08D0F64A9042E7
:1010C00005D0F64A904202D0F54A904202D124F06F
:1010D000020201E024F00A020A4342F00101038304
:1010E000018470BD2DE9F05F0D4604460888E84F85
:1010F000DFF8A0C3DFF8A0834988AA882B894FF0C6
:10110000804960B3042832D04FF6FF7E082836D0DD
:10111000208C9B4620F480502084A38B268C704624
:1011200000EA022223F473431A4300EA0B3010430F
:101130000EEA013EBC420BD0644509D04C4507D0B5
:10114000444505D0D54A944202D0D54B9C4245D166
:1011500026F4005141EA0E0141F4805143E020465B
:10116000FFF794FFE9882046BDE8F05F86E7204658
:10117000FFF731FFE9882046BDE8F05F1FE7208CCC
:1011800020F480702084B4F81CA0208C0EEA031395
:1011900013432AF0F30A0EEA012B43EA0A03BC4286
:1011A0000BD0644509D04C4507D0444505D0BB4A17
:1011B000944202D0BA4A944204D120F4007040EA2A
:1011C0000B0002E020F42060084340F48070A38309
:1011D0002084E9882046BDE8F05FE8E626F4024274
:1011E0000A4342F48051A08320462184E988BDE867
:1011F000F05FD0E62DE9F0410C460026498807460D
:10120000012501B90226A288012A00D102252088E1
:1012100023890028384610D0FFF7DDFEE1883846E4
:10122000FFF7CDFE23892A4631463846FFF72EFFC9
:10123000E1883846BDE8F04120E7FFF727FFE18865
:101240003846FFF71BFF23892A4631463846FFF709
:10125000C2FEE1883846BDE8F041B0E610B50A8824
:101260004B88CC881A438B8823431A430B891A4333
:101270004B8989891A430A43A0F8442010BD4FF6D0
:10128000FF71818000210180C1804180017270471F
:101290000021018041808180C18001814181818163
:1012A000C181704700210180418001228280C1807C
:1012B000018170470021018041808180C1800181CE
:1012C0004181818170470029018802D041F00101EC
:1012D00001E021F0010101807047002930F8441F2E
:1012E00002D041F4004101E0C1F30E0101807047DA
:1012F000002A828901D00A4300E08A438281704734
:10130000818270471143A0F848107047002A8289F3
:1013100001D00A4300E08A4382817047018921F0AD
:10132000070101817047028922F070020A4302819D
:10133000704700B50346FFF7F6FF188940F0070035
:10134000188100BD70B516460D46602904464FF061
:10135000010231460AD0FFF799FE29462046FFF7E1
:10136000E2FF208940F00700208170BDFFF733FEC7
:10137000F3E730B504894FF6FF7505EA03231343FD
:10138000E4B20B432343038130BD10B50446FFF79D
:10139000F0FF208940F07700208110BD10B5044691
:1013A000FFF7E7FF208940F48040208110BD0185D0
:1013B00082827047028822F070020A4302807047DE
:1013C00070B50589048B068C25F007050D434FF693
:1013D000FC410C4040F201110C434FF6FF7101EA51
:1013E000031126F022061143314305810483018451
:1013F00070BD028B22F070020A4302837047028B99
:101400004FF6FF7322F4E04203EA01211143018306
:101410007047828B22F070020A4382837047828B6E
:101420004FF6FF7322F4E04203EA01211143818366
:1014300070470029018802D041F0800101E021F0CD
:101440008001018070470029818802D041F00401A9
:1014500001E021F00401818070470029818802D0D9
:1014600041F0080101E021F0080181807047002966
:10147000818802D041F0010101E021F00101818069
:101480007047028B22F008020A4302837047000073
:10149000002C0140003401400004004000080040DE
:1014A000000C0040028B4FF6FF7322F4006203EA47
:1014B000012111430183E9E7828B22F008020A43EC
:1014C0008283E3E7828B4FF6FF7322F4006203EA24
:1014D000012111438183D9E7028B22F004020A43E0
:1014E0000283D3E7028B4FF6FF7322F4806203EA94
:1014F000012111430183C9E7828B22F004020A43D0
:101500008283C3E7828B4FF6FF7322F4806203EA83
:10151000012111438183B9E7028B22F080020A4343
:101520000283B3E7028B4FF6FF73C2F30E0203EAA6
:10153000012111430183A9E7828B22F080020A4333
:101540008283A3E7828B4FF6FF73C2F30E0203EA96
:1015500001211143818399E7028C22F002020A43A0
:10156000028493E7028C22F008020A4302848DE78A
:10157000028C4FF6FF7322F0200203EA011111439F
:10158000018483E7028C4FF6FF7322F0800203EAA6
:1015900001111143018479E7028C4FF6FF7322F4A5
:1015A000007203EA0121114301846FE7028C4FF6B8
:1015B000FF7322F4006203EA01211143018465E70D
:1015C000028C4FF6FF7322F4005203EA01311143FB
:1015D00001845BE710B50123048C8B409C43048499
:1015E000038C8A401343038410BD10B50423048C7C
:1015F0008B409C430484038C8A401343038410BDB6
:1016000030B50124058C00F118038C40A5430584F6
:1016100089B108290FD0091FC1F34E001844016891
:1016200021F4E041016001684FF6FF7303EA0222F2
:101630001143016030BD03EB5100016821F07001DE
:1016400001600168F4E70029018802D041F002013D
:1016500001E021F00201018018E70029018802D091
:1016600041F0040101E021F0040101800EE70029AE
:10167000818802D041F0800101E021F08001818069
:1016800004E7028822F00802028002880A430280EE
:10169000FCE6828822F07002828082880A4382807F
:1016A000F4E6028922F00702028102890A430281DC
:1016B000ECE6028922F08002028102890A4302815B
:1016C000E4E68184E2E68185E0E68186DEE6018764
:1016D000DCE68187DAE6A0F84010D7E6028822F43B
:1016E0004072028002880A430280CFE6808ECDE6F7
:1016F000008FCBE6808FC9E6B0F84000C6E6808C4C
:10170000C4E6008DC2E602460020128A0A4200D0DA
:101710000120BBE6C9430182B8E602460020138AD5
:1017200092890B4202EA010202D0002A00D0012075
:10173000ACE6C9430182A9E6994910B588420AD1AD
:10174000841401212046FFF754F82046BDE81040DC
:101750000021FFF74EB89349884202D101210414B9
:1017600004E0914988420AD10121C4132046FFF7C1
:1017700049F82046BDE810400021FFF743B810BDEE
:1017800030B502884C8802F441530A88CD88224340
:101790008C882C4322430C8922434C8922438C8918
:1017A0002243CC8922431A430280828B22F40062B6
:1017B0008283098A018230BDF0B505460C460220BD
:1017C0000021AA8B85B001264FF240031A40AA835C
:1017D0002884AF8BA268022A27D0A08800B10226F5
:1017E0006846FEF7ABFFE1880098B1F5007F2DD089
:1017F0007101B0FBF1F000BF00EB8000A168400078
:10180000B0FBF1F0401D80B20A21B0FBF1F000F016
:101810000101401A4FF6FF72C0F34F0002EA0121A6
:10182000821EFE2A01D302200021E28808430243DF
:101830002A8420886188A2890843A188114308432B
:10184000384340F40060A88305B0F0BD000AD3E738
:101850000021018041808180C1800181418181819D
:10186000C181072101827047002101804180818070
:10187000C18002228260818170470029018802D0E4
:1018800041F0400101E021F0400101807047002952
:10189000818B02D041F4806101E021F48061818379
:1018A0007047090901238B40002A828899B201D030
:1018B0000A4300E08A4382807047002A828801D070
:1018C0000A4300E08A4382807047818170478089A3
:1018D0007047A1F57E420188FF3A02D041F4807141
:1018E00001E021F48071018070470029818802D0D5
:1018F00041F0040101E021F0040181807047028879
:1019000022F40062028002880A4302807047018844
:1019100041F48051018070470029018802D041F4D0
:10192000005101E021F4005101807047012901D0EC
:10193000008B7047808A7047008A7047B1F5804FEE
:10194000018803D021F480410180704741F4804137
:10195000FAE70246002012890A4200D001207047AF
:10196000C9430181704710B501F00F0401220346FD
:1019700002FA04F4002009098A4091B29A88A4B2BC
:101980000A401989214202D0002A00D0012010BD4E
:1019900001F00F0201219140C9430181704700000D
:1019A0000030014000380040003C0040C54910B5FF
:1019B000884202D1012144150AE0C349884202D17C
:1019C0000121041504E0C14988420AD10121CC0358
:1019D0002046FEF70EFF2046BDE810400021FEF72E
:1019E00008BF10BD10B54268B94B0C791A400B689E
:1019F00042EA0422134343608368B64A1340D1E9A4
:101A0000024222434C7943EA44031A438260C26A89
:101A1000097C22F47002491EC9B242EA0151C16236
:101A200010BD00210160017141718160C16001211F
:101A3000017470470029816802D041F0010101E082
:101A400021F00101816070470029816802D041F4D2
:101A5000807101E021F4807181607047002A426842
:101A6000C9B201D00A4300E08A43426070478168EE
:101A700041F008018160704701460020896809072C
:101A800000D501207047816841F0040181607047F2
:101A9000014600208968490700D5012070470029C8
:101AA000816802D041F4A00101E021F4A00181602D
:101AB0007047014600208968490200D5012070471F
:101AC0004268491E22F4604242EA41314160704757
:101AD0000029416802D041F4006101E021F4006175
:101AE0004160704770B5072409290AD9C568A1F17A
:101AF0000A0606EB4606B440A543B3401D43C56045
:101B000007E0056901EB4106B440A543B3401D431E
:101B100005611F23072A09D2446B521E02EB820281
:101B200093409C4391400C43446370BD0D2A09D2FD
:101B3000046BD21F02EB820293409C4391400C4302
:101B4000046370BDC46A0D3A02EB820293409C4369
:101B500091400C43C46270BD0029816802D041F4F9
:101B6000801101E021F4801181607047C06C80B267
:101B7000704754484C30006870470029416802D0D3
:101B800041F4806101E021F48061416070470029E7
:101B9000416802D041F4805101E021F4805141605C
:101BA0007047826822F4E0420A438260704700294D
:101BB000816802D041F4004101E021F400418160DC
:101BC00070470029816802D041F4021101E021F43C
:101BD000021181607047014600208968890200D5A2
:101BE0000120704770B5072409290AD9C568A1F1F9
:101BF0000A0606EB4606B440A543B3401D43C56044
:101C000007E0056901EB4106B440A543B3401D431D
:101C10000561836BC3F30154121B921C02EB820417
:101C20001F22A2409343A1400B43836370BD826B8C
:101C3000491E22F4401242EA01518163704708B5FF
:101C400008440090026008BD08B5084428300090A0
:101C5000006880B208BD42681F4B1A400A434260C8
:101C60007047416282627047426822F01F020A4355
:101C700042607047134908310028086802D040F4D8
:101C8000000001E020F400000860704702460020D8
:101C900012680A4200D001207047C94301607047B2
:101CA00010B50246002054680B0AC9B20C401168F6
:101CB000194202D0002C00D0012010BD6FEA112182
:101CC000016070470024014000280140003C0140B1
:101CD000FFFEF0FFFDF7F1FFFFFD3FFF01684FF64C
:101CE000FE72114001600021016041608160C160AD
:101CF0006A496A4A0839904203D1486840F00F00A7
:101D000006E0664A1432904204D1486840F0F00080
:101D100048607047614A2832904203D1486840F4D5
:101D20007060F5E75D4A3C32904203D1486840F468
:101D30007040EDE7594A5032904203D1486840F470
:101D40007020E5E7554A6432904203D1486840F478
:101D50007000DDE7514A7832904203D1486840F084
:101D60007060D5E74E4A111F904203D1086840F0D9
:101D70000F0006E04A4A1432904204D1086840F04D
:101D8000F00008607047464A2832904203D1086844
:101D900040F47060F5E7424A3C32904203D1086853
:101DA00040F47040EDE73E4A50329042EAD1086874
:101DB00040F47020E5E730B5036847F6F0729343CE
:101DC0000C6A8A682243D1E904452C4322438C697A
:101DD0002243CC6922434C6A22438C6A22431A4331
:101DE0000260CA6842600A6882604968C16030BDAA
:101DF0000021016041608160C160016141618161D8
:101E0000C16101624162816270470029016802D0AC
:101E100041F0010102E04FF6FE721140016070478F
:101E2000002A026801D00A4300E08A43026070473A
:101E300041607047406880B2704701460020CA0088
:101E400002D5174A083A01E0144A083A12680A42D1
:101E500000D001207047C10003D51149091F086057
:101E600070470E4908394860704701460020CA0093
:101E700002D50B4A083A01E0084A083A12680A42B9
:101E800000D001207047C10003D50549091F086033
:101E90007047024908394860704700000800024056
:101EA000080402400D49086070470C4948607047BB
:101EB0000A498860704709494AF6AA2008607047B5
:101EC00006494CF6CC4008607047044A01460020A1
:101ED000D2680A4200D00120704700000030004064
:101EE0000948804709480047FEE7FEE7FEE7FEE7AE
:101EF000FEE7FEE7FEE7FEE7FEE7FEE704480549EA
:101F0000054A064B7047000099020008310100089D
:101F1000E01A0020E0200020E01C0020E01C00204F
:101F20007047401E80B2FCD27047401E80B2FCD287
:101F3000704703E00521491E89B2FCD2401E80B2E1
:101F4000F8D2704710B503464FF47A7402E0204689
:101F5000FFF7EFFF5B1E9BB2F9D210BD30B500203A
:101F6000294A2A4D034640F2DC5400BF02EB00111F
:101F7000401C4C80C1E90253C0B20828F6D330BDE2
:101F800030B502460B4616E01D78AC420CD011E08D
:101F900012F8015B5B1CA54206D05B1AD21A0C78C2
:101FA0000B46521C3CB902E01C78002CF0D1101AF0
:101FB00080B230BD521C1478002CE5D1002030BD19
:101FC000F0B500224D1E18E01446531C08E000BF77
:101FD00050F8246050F82370BE4200DD1C465B1CA4
:101FE0008B42F5DB944207D050F8243050F8226041
:101FF00040F8246040F82230521CAA42E4DBF0BDD5
:10200000002800DC40427047B40000200080BB4440
:1020100010B501210D20FEF7DAFBBDE810400121CB
:102020006C48FEF779BA08B501210820FEF7CFFB0E
:102030004FF40050ADF8000010208DF8030003208D
:102040008DF8020069466448FEF7D7F908BD012201
:1020500082406148002991B201D0FEF73CBAFEF7F8
:102060003CBA10B55D4C207808B1002100E0012198
:102070000D20FFF7ECFF2078C043207010BD08B59D
:1020800001210820FEF7A3FB2020ADF8000010205E
:102090008DF8030003208DF8020069464E48FEF7D4
:1020A000ACF908BD70B50E460546002416E00121C6
:1020B0000520FFF7CCFF00210D20FFF7C8FFA8B2D5
:1020C000FFF740FF00210520FFF7C1FF01210D2090
:1020D000FFF7BDFFA8B2FFF735FF641CB442E6D39B
:1020E00070BD012282403E48002991B201D0FEF726
:1020F000F2B9FEF7F2B9012282403A48002991B2C2
:1021000001D0FEF7E8B9FEF7E8B938B501210C2097
:10211000FEF75DFB4FF40140ADF8000003248DF89D
:10212000024010258DF8035069462D48FEF765F9E9
:102130004FF47670ADF800008DF802408DF8035032
:1021400069462548FEF759F938BD062810D2DFE860
:1021500000F0030507090B0D032008E0082006E046
:10216000092004E0062002E0072000E004206EE7DA
:10217000704738B501210C20FEF729FB4FF40060B1
:10218000ADF8000048248DF8034069461248FEF778
:1021900034F90220ADF800008DF80340694610487C
:1021A000FEF72BF938BD70B50D46064600240EE04B
:1021B00001210520FFF74BFFA8B2FFF7C3FE002166
:1021C0000520FFF744FFA8B2FFF7BCFE641CB44231
:1021D000EEDB70BD00023000000C01402B0000203F
:1021E00000080140001001401CB501210520FEF748
:1021F000EEFA01215048FEF78FF94FF4E040ADF8B8
:10220000000010208DF8030003204C4C8DF80200D4
:1022100069462046FEF7F1F84FF40040ADF804009F
:1022200028208DF8070001A92046FEF7E6F81CBD1E
:1022300010B5FFF7D9FF414C4FF400512046FEF78F
:102240004AF94FF480412046FEF745F9A114204693
:10225000BDE81040FEF73FB92DE9F05F0026DFF83A
:10226000DC90074635464FF4804B4FF480584FF0D2
:10227000010A00BF0AFA05F43C425946484602D01A
:10228000FEF729F901E0FEF728F90120FFF751FEDA
:1022900041464846FEF71FF90A20FFF74AFE41462D
:1022A0004846FEF71AF90A20FFF743FE4146484622
:1022B000FEF711F94FF400414846FEF7F8F808B16F
:1022C0003443E6B26D1CEDB2082DD3D33046BDE8E1
:1022D000F09F70B5194E04464FF40055294630461C
:1022E000FEF7FBF80120FFF7B7FF20704220FFF751
:1022F000B3FF60702078FFF7AFFFA0702078FFF782
:10230000ABFFE0702078FFF7A7FF20712078FFF780
:10231000A3FF60712078FFF79FFFA0712078FFF77F
:102320009BFFE0712078FFF797FF20722946304627
:10233000BDE87040FEF7CFB800043000000801404F
:1023400010B5FEF739F94FF480342046FEF74DF909
:10235000FEF778F90028FDD00020FEF7ABF94FF426
:102360008060FEF7AEF90020FEF7B2F94FF4E011FD
:102370002046FEF788F90120FEF78DF93920FEF797
:102380004CF90028FAD00220FEF788F9FEF78DF903
:102390000828FBD110BD000010B545F25550FFF7DD
:1023A00081FD0620FFF781FD4FF4EA70FFF780FD05
:1023B000FFF781FDBDE81040FFF782BDB0F5000FCB
:1023C00001DA80F0004070474FF0E0200021816189
:1023D000FE494161016941F00701016170474FF019
:1023E000E02100208861FA480169491C0161FFF77A
:1023F00062BDF748006970477FB50C46054601216C
:10240000C802FEF7E4F9641EADF80040ADF80450D0
:102410000024F04DADF80640ADF802408DF80840BC
:1024200069462846FEF7A6FC01212846FFF772F907
:10243000012241212846FEF75BFF19208DF80C0090
:102440008DF80D408DF80E4001208DF80F0003A887
:10245000FEF711FA01212846FEF735FF7FBD7FB553
:102460000C46054601210846FEF7BAF9ADF80040D2
:102470000020ADF80450ADF80600ADF802004FF0B2
:10248000804469462046FEF775FC00212046FEF791
:10249000D0FF012211462046FEF72AFF1C208DF8AE
:1024A0000C0001218DF80D1002208DF80E008DF822
:1024B0000F1003A8FEF7DFF901212046FEF703FF06
:1024C0007FBD7FB50C46054601210220FEF788F945
:1024D000ADF800400020ADF80450BF4CADF8060048
:1024E000ADF8020069462046FEF744FC0021204674
:1024F000FEF79FFF012211462046FEF7F9FE1D2040
:102500008DF80C0003208DF80D0001218DF80E10C0
:102510008DF80F1003A8FEF7AEF901212046FEF753
:10252000D2FE7FBD30B50C46054689B001210220A0
:10253000FEF756F901210820FEF749F90320ADF80E
:102540001C0018218DF81F108DF81E0007A9A34844
:10255000FDF753FFADF81450ADF8104000249E4D28
:10256000ADF81640ADF8124004A92846FEF702FC6B
:102570006020ADF800000120ADF802004FF4FA70C1
:10258000ADF80600ADF8084069462846FEF79CFC09
:1025900008212846FEF790FF69462846FEF7CEFC44
:1025A00008212846FEF78EFF01212846FEF78BFE04
:1025B00009B030BD30B50C46054689B00121042074
:1025C000FEF70EF901210820FEF701F94FF44070E3
:1025D000ADF81C0018208DF81F0003208DF81E0098
:1025E00007A97E48FDF709FFADF81450ADF810407B
:1025F00000247B4DADF81640ADF8124004A92846E2
:10260000FEF7B8FB6020ADF800000120ADF8020035
:102610004FF4FA70ADF80600ADF808406946284658
:10262000FEF752FC08212846FEF746FF6946284679
:10263000FEF784FC08212846FEF744FF01212846C6
:10264000FEF741FEB4E7B0F5000F01DA80F000407C
:10265000704770B5634901EB0015EA6812F0FF4F4F
:1026600020D06C8840F6BA10844203DC4FF4FA7034
:10267000844200DA04460121104605F0EEFCFFF723
:10268000E2FF0646204605F0ABFA0446A96805F0CD
:102690000FFCFFF7D8FF314605F0CEFA03D8002033
:1026A000C5E9024070BDD5E9020105F027F9A8602F
:1026B00070BD70B501218D072846FFF72EF8002860
:1026C00021D001212846FFF734F8414C207A082810
:1026D00001D1002020724348267AE17900EB0610F0
:1026E000806889B105F05CFAA0F6C4104042A88564
:1026F00000213046FFF729FD207A401C2072E07946
:1027000068B10020E07170BD05F04AFAA88501218A
:102710003046FFF71AFD207AFFF79BFFEFE7012015
:10272000F0E710B52C4C01212046FEF7F6FF0028FB
:1027300005D02046BDE810400121FEF7FABF10BDCC
:102740002DE9F0418846074688B0012140F6040093
:10275000FEF73DF84FF48070ADF81C0048208DF86E
:102760001F0003208DF81E0007A91F48FDF745FE36
:102770001B208DF8000000248DF8014001258DF804
:1027800002508DF803506846FEF775F819208DF851
:1027900000008DF8014002268DF802608DF803508C
:1027A0006846FEF768F8ADF814700A4FADF810806F
:1027B000ADF81640ADF8124004A93846FEF7DAFA33
:1027C000ADF80440ADF8066010E0000040190100CB
:1027D0002C000020002C014000040040000C0140AF
:1027E00000080040B400002000080140ADF80A4095
:1027F000ADF80850ADF80C4001A93846FEF772FC60
:1028000001213846FEF786FF02213846FEF782FF97
:10281000012202213846FEF76BFD01213846FEF702
:1028200052FD08B0BDE8F08110B5864C012120466C
:10283000FEF773FF012809D101212046FEF76AFF48
:1028400081494879022802D2401C487110BD88791C
:102850001F28FBD900220A704A708A70CA700A7158
:102860004A718A712046BDE810400121FEF740BD43
:102870002DE9F047734E02213046FEF74EFF012846
:102880004FD102213046FEF745FF6F4C01274FF034
:10289000020960786FF4FA5A40F2CF78002560B3ED
:1028A000A07920285ED23046FEF720FFE08100218B
:1028B0003046FEF706FF6069E189400040F2A462FD
:1028C0006061914202D940F001006061A079401C32
:1028D000C0B2A071202824D161695C480A0E027040
:1028E0000A0C4270C1F307228270C9B2C17050183D
:1028F000FF2816D025706570A1E0207898B10128D6
:102900001BD002280DD13046FEF7F0FEA081002139
:102910003046FEF7D6FEA089A0F6AD5040451FD246
:102920006770BDE8F08700213046FEF7CAFE00213F
:102930003046FEF711FE2770F3E73046FEF7D6FE6D
:10294000608100213046FEF7BCFE02213046FEF7D2
:1029500003FE61895144414502D284F80090E0E7CA
:102960002570DEE7A07830B1012815D0022826D0E6
:1029700003283DD051E03046FEF7B8FE60810021CB
:102980003046FEF79EFE00213046FEF7E5FD30485A
:1029900007706571A77040E03046FEF7A7FE6081C2
:1029A00000213046FEF78DFE02213046FEF7D4FDB1
:1029B00061895144414518D284F802902DE0304697
:1029C000FEF794FEA08100213046FEF77AFEA08932
:1029D00040F2BB21A0F2A560884206D20021304619
:1029E000FEF7BAFD0320A07017E0A570277114E070
:1029F0003046FEF77BFE608100213046FEF761FE27
:102A000002213046FEF7A8FD6089A0F2F510952856
:102A100001D2E77000E02771A570E07830B1E57071
:102A20000122657111463046FEF762FC20790028CC
:102A300095D025706570A570E57025716571A571DB
:102A40006FE70000002C01402C0000209C000020BB
:102A50007700002070B5054686B001210820FDF7FB
:102A6000B6FE01218804FDF7BBFE4FF48060ADF88F
:102A7000100018208DF81300FD4E03248DF812402D
:102A800004A93046FDF7B9FCF014ADF8100004209D
:102A90008DF8130004A93046FDF7AFFC0020ADF817
:102AA00004000095ADF80600ADF80800ADF80C0084
:102AB0000C20F04DADF80A0069462846FDF75EFF90
:102AC00027208DF8140001218DF815108DF816407F
:102AD0008DF8171005A8FDF7CEFE012240F2255112
:102AE0002846FDF7C8FF01212846FDF7BAFF06B0CA
:102AF00070BDF0B5054687B001210420FDF767FEE3
:102B000001214804FDF76CFEDB4E3046FDF706FF61
:102B10000424ADF8104003208DF812001820D74F80
:102B20008DF8130004A93846FDF767FC0820ADF8BE
:102B300010008DF8134004A93846FDF75EFC002014
:102B4000ADF80400ADF80600ADF80800ADF80C00D3
:102B50000C20ADF80A00009569463046FDF70EFFDF
:102B600026208DF8140001208DF8150002218DF823
:102B700016108DF8170005A8FDF77DFE012240F222
:102B800025513046FDF777FF01213046FDF769FFFB
:102B900007B0F0BDF0B5064689B0012144F204004B
:102BA000FDF715FEB64D2846FDF7B8FE6C15ADF8DD
:102BB000104003208DF812001820B04F8DF813003C
:102BC00004A93846FDF719FC6000ADF81000042098
:102BD0008DF8130004A93846FDF70FFC0021ADF86D
:102BE00004100096ADF80610ADF808100C20ADF8F2
:102BF0001410ADF81840ADF80C10ADF80A00ADF89F
:102C00001610ADF81A1005A92846FDF715FF6946FC
:102C10002846FDF7B3FE4FF4E060FDF727FE2520C0
:102C20008DF81C0001218DF81D108DF81E108DF8F7
:102C30001F1007A8FDF71FFE012240F2255128466C
:102C4000FDF719FF01212846FDF70BFF09B0F0BD84
:102C500070B54FF4E1342046FFF79CFF40F2255554
:102C6000012229468648FDF706FF2046FFF741FF6F
:102C7000012229468048FDF7FEFE2046FFF7EAFEC6
:102C8000012229467B48FDF7F6FE62B670BD01467B
:102C90007B48FDF73CBF2DE9F0410E460746002476
:102CA000774D0BE0395D2846FDF731FF802128463E
:102CB000FDF78EFF0028F9D0641CA4B2B442F1D312
:102CC000BDE8F08170B504466D4D09E02846641CEE
:102CD000FDF71DFF80212846FDF77AFF0028F9D077
:102CE00021780029F2D170BD01466348FDF70FBF7E
:102CF0002DE9F0410E46074600245F4D0BE0395D9B
:102D00002846FDF704FF80212846FDF761FF0028D3
:102D1000F9D0641CA4B2B442F1D3D1E770B5044633
:102D2000554D09E02846641CFDF7F1FE8021284638
:102D3000FDF74EFF0028F9D021780029F2D170BDAF
:102D400001464C48FDF7E3BE2DE9F0410E4607462B
:102D50000024484D0BE0395D2846FDF7D8FE802160
:102D60002846FDF735FF0028F9D0641CA4B2B44210
:102D7000F1D3A5E770B504463E4D09E02846641C32
:102D8000FDF7C5FE80212846FDF722FF0028F9D077
:102D900021780029F2D170BD2DE9F041384C40F284
:102DA000255529462046FDF713FF012842D1294623
:102DB0002046FDF736FF2046FDF7ADFE314CC0B290
:102DC000217871BB012530490023304A3C2802D0CC
:102DD0000E7816B10FE004260BE0242804D0232837
:102DE00004D07B2804D005E00D7003E0022600E04B
:102DF00003260E701380264E1788F0557F1CBFB235
:102E000017800978042906D0012907D0022905D0A6
:102E1000032907D00AE03E2806D007E0212803D086
:102E200004E007E07D2801D1F3552570B7F5806FE8
:102E300000D31380002043E72DE9F0410E4C40F20F
:102E4000255529462046FDF7C3FE012851D12946C4
:102E50002046FDF7E6FE2046FDF75DFEC0B20122EA
:102E6000094C002509493C2814D02378A3B121E05E
:102E7000000C0140004800400044004000080140B0
:102E800000380140290000202A00002044000020D2
:102E90003405002004230BE0242804D0232804D088
:102EA0007B2804D005E0227003E0022300E0032326
:102EB00023704D80434B4E88434F9855761CB6B2D5
:102EC0004E802478042C06D0012C07D0022C05D08B
:102ED000032C06D009E03E2805D006E0212802D0C8
:102EE00003E07D2801D19D553A70B6F5806F00D37F
:102EF0004D800020E4E62DE9F041344C40F22555A8
:102F000029462046FDF764FE012841D12946204686
:102F1000FDF787FE2046FDF7FEFD2B4CC0B2217861
:102F2000B1BB01252A4900232A4A3C2802D00E7849
:102F300016B10FE004260BE0242804D0232804D087
:102F40007B2804D005E00D7003E0022600E0032694
:102F50000E7093801B4E9788F0557F1CBFB29780F0
:102F60000978042906D0012907D0022905D00329B0
:102F700006D009E03E2805D006E0212802D003E073
:102F80007D2801D1F3552570B7F5806F00D393806C
:102F9000002095E696E67EE679E6BFE6A8E6A3E69B
:102FA00070B5094C0546012020702846FFF7E2FE67
:102FB0002846FFF787FE0020207070BDDAE6C3E6E2
:102FC000BEE6000034050020290000200048004033
:102FD0002A0000204400002070B506460024F74D6A
:102FE00003E0641CE4B2C82C0FD802212846FEF787
:102FF000B0FC0028F5D031462846FEF766FC0024D8
:1030000005E0641CE4B2C82C01D9002070BD012188
:103010002846FEF79EFC0028F3D02846FEF757FC12
:10302000C0B270BD2DE9F041E54DE64EE34F4FF4DF
:10303000005490B12C801820E87029463046FDF7E6
:10304000DCF921463046FDF746FA01213846FEF705
:1030500014FCBDE8F041FF20BEE700213846FEF732
:103060000CFC2C801020E8700320A8703046BDE8CE
:10307000F041D349FDF7C1B903E00921491E89B2E6
:10308000FCD2401E80B2F8D2704710B5CE49002065
:10309000CA4C88812046FEF773FB2046BDE81040ED
:1030A0000121FEF7EABBF8B501210820FDF78FFBEF
:1030B0004FF48054ADF8004010208DF80300032039
:1030C000C04E8DF8020069463046FDF796F921465C
:1030D0003046FDF700FA4FF42044ADF800401820C8
:1030E0008DF8030069463046FDF787F94FF48045B7
:1030F000ADF8005048208DF8030069463046FDF7D2
:103100007CF921463046FDF7E6F901212846FDF716
:1031100067FBAD4800214FF48272018042808180BC
:103120000222C2800122028152024281382282811F
:10313000C18107210182A14C01462046FEF720FBF8
:1031400001212046FEF799FBFF20FFF745FFFFF71F
:103150009CFFF8BD10B59C493020984C88812046D2
:10316000FEF70EFB2046BDE810400121FEF785BBAF
:1031700070B5944E00244FF48055224629463046BF
:10318000FDF7ADF99020FFF727FF0020FFF724FFA0
:103190000020FFF721FF0020FFF71EFFFF20FFF7B1
:1031A0001BFF44EA0024FF20FFF716FF044301221F
:1031B00029463046FDF793F9204670BD70B5814E23
:1031C0004FF48055002229463046FDF788F9052046
:1031D000FFF702FFFF20FFF7FFFE0446012229460A
:1031E0003046FDF77CF9204670BD70B5754D06463A
:1031F0004FF48054002221462846FDF770F9012043
:10320000FFF7EAFE3046FFF7E7FE21462846BDE815
:1032100070400122FDF763B970B56A4D4FF48054D8
:10322000002221462846FDF75AF90620FFF7D4FE72
:1032300021462846BDE870400122FDF750B970B51F
:10324000604D4FF48054002221462846FDF747F98F
:103250000420FFF7C1FE21462846BDE87040012248
:10326000FDF73DB970B5574E04464FF48055002226
:1032700029463046FDF733F90320FFF7ADFEC4F3CE
:103280000740FFF7A9FEC4F30720FFF7A5FEE0B251
:10329000FFF7A2FEFF20FFF79FFE494C0122A41E6C
:1032A000294620703046FDF71AF9207870BD2DE9C7
:1032B000F041DFF8108115460C4606464FF4805762
:1032C000002239464046FDF70AF90320FFF784FE45
:1032D000C4F30740FFF780FEC4F30720FFF77CFE2E
:1032E000E0B2FFF779FE002405E0FF20FFF774FE4F
:1032F0003055641CA4B2AC42F7D339464046BDE811
:10330000F0410122FDF7EBB82DE91040FFF756FF21
:10331000C007FBD110BD2DE9F0410646C8B2C0F58B
:10332000807014460D46824200D90446FFF774FFB0
:10333000DFF890804FF48057002239464046FDF771
:10334000CEF80220FFF748FEC5F30740FFF744FE22
:10335000C5F30720FFF740FEE8B2FFF73DFE00256A
:1033600004E0705DFFF738FE6D1CADB2A542F8D3E6
:10337000012239464046FDF7B2F8BDE8F041C3E707
:103380002DE9F0410746C8B2C0F580740E461546D7
:10339000A24200D814464FF480782246314638467F
:1033A000FFF7B9FFA54211D0281B2744264485B258
:1033B0004446A542F1D82C46EFE700000038004013
:1033C0004C000020000C0140F4090020BDE8F08111
:1033D00070B50403FFF720FFFFF796FF964E4FF4FA
:1033E0008055002229463046FDF779F82020FFF766
:1033F000F3FDC4F30740FFF7EFFDC4F30720FFF729
:10340000EBFDE0B2FFF7E8FD012229463046FDF76B
:1034100066F8BDE8704077E72DE9F05FC1F30B0671
:103420000F0BC6F58054884682461546A24200D846
:103430001446DFF8089239038B464FF480527F48D8
:10344000FFF735FF002006E0321819F80210FF29B7
:1034500003D1401C80B2A042F6D3A04222D238460B
:10346000FFF7B6FF00204A4606E000BF1AF800103A
:103470008319401CD15480B2A042F7D359464FF46F
:1034800080526E48FFF77CFFA5420FD0281BA24454
:10349000A044002685B24FF480547F1CA542CAD8B0
:1034A0002C46C8E7224641465046EBE7BDE8F09F70
:1034B000C1F30B03C3F580539A4200D91A465FE764
:1034C0002DE9F04F8246C1F30B0081B0C0F5805466
:1034D000ADF5805D0E461546A24200D81446E94679
:1034E0004FEA16384FEA08318B464FF4805248466F
:1034F000FFF7DDFE0020C6F30B0706E03A1819F8C7
:103500000210FF2903D1401C80B2A042F6D3A04292
:1035100020D24046FFF75CFF0021484606E000BF8E
:103520001AF801207B18491CC25489B2A142F7D372
:1035300059464FF4805200BFFFF7BAFFA5420DD0A5
:10354000281BA244264485B24FF48054A542C7D814
:103550002C46C5E7224631465046EDE701B00DF551
:10356000805DBDE8F08F2DE9F0410C460746FFF77E
:1035700053FE314E4FF48055002229463046FCF769
:10358000AEFF0220FFF728FDC4F30740FFF724FD3C
:10359000C4F30720FFF720FDE0B2FFF71DFD38461A
:1035A000FFF71AFD012229463046FCF798FFBDE8D7
:1035B000F041A9E670B5FFF72FFEFFF7A5FE1E4DFF
:1035C0004FF48054002221462846FCF788FFC7208C
:1035D000FFF702FD012221462846FCF780FFBDE8E7
:1035E000704091E670B5144D4FF48054002221468E
:1035F0002846FCF774FFB920FFF7EEFC01222146B4
:103600002846FCF76CFFBDE87040032034E570B538
:10361000094D4FF48054002221462846FCF75FFFF5
:10362000AB20FFF7D9FC012221462846FCF757FFC3
:10363000BDE8704003201FE5000C0140060A002091
:1036400010B5404C86B02046FEF7B0F900220121AB
:103650004FF46020CDE902028DF804108DF80510BA
:103660008DF81010009269462046FEF7BBF94FF422
:103670000040FDF742F80723012205212046FEF70E
:1036800031FA01212046FEF7DFF901212046FEF73D
:10369000D1F92046FEF7EBF92046FEF7EDF90028B8
:1036A000FAD12046FEF7EFF92046FEF7F1F900289F
:1036B000FAD101212046FEF7F2F906B010BD10B58F
:1036C000214C8CB02046FEF709FB1E4800214C30EF
:1036D00000901E48CDE901010120CDE903018020C1
:1036E000059040000690800007902020089000027E
:1036F000CDE9090169462046FEF75DFB0121204620
:10370000FEF783FB0CB010BD08B501210846FDF79C
:1037100055F801214FF40170FDF759F82020ADF85C
:10372000000000208DF8030069460948FCF765FE9B
:1037300008BD10B5FFF7E8FFFFF7C1FFBDE8104077
:103740007EE70000002401400800024050000020F5
:10375000000801402DE9F041F64D0F469846164607
:103760002946069C04F09CFA20602946384604F05D
:1037700097FA60602946304604F092FAA060294624
:10378000404604F08DFAE060BDE8F0812DE9FF4F7E
:103790008DB0E84D0F46164629461A9C04F080FA73
:1037A00081462946384604F07BFA8346294630464E
:1037B00004F076FA0F90D4E900A00590A06800907C
:1037C000E068DFF87483DD4DDD4E19F0FF4F0690A1
:1037D0006ED05946484604F005F904F063F803F04A
:1037E0005DF80022434603F04DFD2A46334603F0C0
:1037F0002DFB03F03DFA07465946084604F050FAFF
:1038000083464946084604F04BFA594604F076F8D8
:1038100004F048F803F0F0F903F02AFA8346109810
:1038200004F040F8C54AC64B03F02CFD0022C24B01
:1038300003F00CFB0646049103F040F980468946EC
:10384000069804F02FF8054642464B46029103F0D5
:1038500019FD80468946584604F024F842464B46F6
:1038600003F036FF03F004FA83463046049903F070
:1038700073F902460B462846029903F003FD0646FB
:103880000D4651460F9804F013FB04F00BF8324636
:103890002B4603F01DFF03F0EBF980468AF0004051
:1038A000414604F0C9FA05D2012011B0BDE8F08FFD
:1038B0000027A1E70099059804F020F803F0F2FF33
:1038C0000E4605464146084604F0EAF98146594647
:1038D000084604F0E5F9494604F010F8089003F0B2
:1038E000E1FF8A46814603F087F92A46334603F012
:1038F000C7FD01D20220D8E74846514603F07CF9C3
:1039000006460D46584603F0CDFF32462B4603F0DF
:103910009DFA02F085FE03F0ABF90390484651464C
:1039200003F06AF906460D460121059804F095FB5F
:10393000099003F0B7FF32462B4603F0A3FC0D4677
:1039400000990646084604F0ABF9059981460790B0
:10395000084604F0A5F901460B90089803F0CEFF45
:10396000494604F0A5FA03F09DFF32462B4603F0CA
:103970006DFA03F07DF94FF07E56B04203DCDFF8BC
:10398000C491484501D905208FE7DFF8BCB1D8457F
:1039900001D34D4600E0354603F084FF02F040FEBF
:1039A00080468A462946039804F07AF903F07AFFA4
:1039B0004246534603F08EF903F05AF903F072FFC2
:1039C000DFF874A10022534603F05CFC5B4A5C4BB9
:1039D00003F03CFA03F04CF95C498046884201DC74
:1039E000D84501D3062060E70099099804F058F9FA
:1039F00005460B99089804F05BFA0146079804F015
:103A000057FA294603F0EEFFB04201DC484501D9E0
:103A100003204AE703F046FF02F002FE03F028F914
:103A200003F040FF00225546534603F02BFC434A67
:103A3000434B03F00BFA00222B4603F057FD03F033
:103A400017F943490546884202DC4248854201D9BC
:103A500004202AE74146109804F02AFA294603F088
:103A60004DFF3D490646884202DC3C48864201D96A
:103A700007201AE74046276104F01AFA6061C4E99A
:103A800006568046384603F00DFF354F00223B4670
:103A900003F0F8FBDFF8CC9000224B4603F0D6F998
:103AA000DFF8C4A00022534603F020FD03F026FBFC
:103AB00004F096F82064404603F0F4FE00223B46F2
:103AC00003F0E0FB00224B4603F0C0F9002253460E
:103AD00003F000F903F012FB04F082F8606428465A
:103AE00003F0E0FE00223B4603F0CCFB00224B46F5
:103AF00003F0ACF90022534603F0ECF803F0FEFAB1
:103B000004F06EF8A064304603F0CCFE00223B4681
:103B100003F0B8FB00224B4603F098F9002253460D
:103B200003F0D8F803F0EAFA04F05AF8E064002051
:103B3000BBE6000000002041008066404AD8124DDC
:103B4000FB210940000080BF00008080000034435A
:103B500000000743000007C30000B4420000B4C2E5
:103B600000409F4000E0704000709740FEF7CDBAE3
:103B7000472144F62060FEF772BC2DE9F041002495
:103B8000DFF8F883FE4E274608EB840006EB0415A9
:103B9000B0F88C0000F2DC5080B2688004F038F895
:103BA000C5E90207641CE4B2082CEDD3BDE8F0813E
:103BB00010B50120FFF736FA40F2FF70FFF708FC5E
:103BC000C022F049ED48FFF727FCBDE81040002077
:103BD000FFF728BA2DE9FC5F05460024FFF7E0F95E
:103BE0002878232808D12879502805D16979E64812
:103BF000532902D0442960D0A7E0A97943297DD177
:103C0000E9794B297AD1297B212977D16978EA781A
:103C1000303901EBC10303EB011102EB8101AA78FA
:103C200002EB820200EB420211448CB2697AEA7A1A
:103C3000303901EBC10303EB011102EB8101AA7AD8
:103C400002EB820200EB42000144D04801F5FA7217
:103C5000B2F57A7F816056D8082C54D22A7A2B2A62
:103C600003D02D2A01D149428160C449866801EB05
:103C7000840757F88C1F881B03F0B2FFC04901EB83
:103C80000414A1680D4604F008F9C1493E60884259
:103C900002DCC049884200DA084603F081FF80B2A6
:103CA000608003F0B5FF294604F002F9BA4903F039
:103CB00099FEE060BDE8FC5F7AE7A979532944D119
:103CC000E979542941D1297A21293ED16978EA78C4
:103CD000303901EBC10303EB011102EB8101AA783A
:103CE00002EB820200EB4200084480B208280AD2AC
:103CF000A349002201EB0014E26000E025E0A06887
:103D000003F04EFF6080BDE8FC9F232804D05028BC
:103D10001FD0542845D047E0BBF1010F44D12246C3
:103D20000026641CA4B26FF02F0107E006EB8603A7
:103D300001EB43031844641C86B2A4B2285D08B1A9
:103D40005028F3D1A01A042801D0012027E0022036
:103D500025E0BBF1020F27D10020A046641CA4B2CD
:103D6000DFF83892DFF838A200900FE003F050FF40
:103D700007464946009803F093FF394603F0BEFD1D
:103D8000514604F095F8641CA4B20090285D08B177
:103D90005428EBD1A4EB08000528D6D10320834694
:103DA00004E0BBF1030F05D0641CA4B2285D002819
:103DB000ABD1A8E72246641C4FF0000AA4B26FF012
:103DC0002F0308E00AEB8A0103EB41010844641C5D
:103DD0001FFA80FAA4B2285D08B12128F2D1BAF501
:103DE000FA7F03D20AF596701FFA80FAA01A4FF0F4
:103DF000010B0528DAD1082E50D26A490098884272
:103E00004CDC644FB84249DB42F210718A4545D818
:103E10005A4800EB8600D0F88C0003F0E1FE0099D0
:103E200003F06CFD014600905948814201DD00908D
:103E300002E0B94200DA00970098BAF1140F0BD2F1
:103E400003F0AEFE01464E4800EB0610418000999B
:103E500081600021C16021E003F0A2FE484980B2E8
:103E600001EB0617019078805046A7F804A003F0F4
:103E7000B9F900224C4B02F0E9FF804689460198CF
:103E800003F0C6FEB96804F013F803F00BFD4246D8
:103E90004B4602F0DBFF02F0EBFEF860FF2E85D10F
:103EA0000026504603F09EF93F4B002202F0CEFF61
:103EB00089468046314800EB8600D0F88C0000F23D
:103EC000DC5003F08DFE009003F06AFE82B22C48B5
:103ED00000EB061710467A80A7F804A003F098FEBE
:103EE000B96803F0E5FF03F0DDFC42464B4602F003
:103EF000ADFF02F0BDFE761CB6B2F860082ED9D335
:103F000054E770B503460021084602E0542A04D065
:103F1000491C5A5C002AF9D170BD5A185478157999
:103F2000303C04EB4406C6EBC41405EBC40594789E
:103F3000D2786426744302EB820204EB42022A44E4
:103F4000A2F5A052D03A824200DD1046091DE0E7FA
:103F500010B504460120FFF765F84FF4806113485F
:103F600001F0BFFC2102FF221048FFF7A0F90F4823
:103F7000FFF7C7FF054908600C4819E03409002025
:103F8000B400002000F07F00F0FDFFFF540000208F
:103F900000101C450000FA430000A0400000204132
:103FA0000000404200401C45000034403405002021
:103FB000FFF710FEBDE810400020FFF733B802689D
:103FC0000B6803600A6070472DE9F04104460D4616
:103FD0000120FFF727F8AC4202DD20462C460546BB
:103FE0004FF48066B710AC4216DC3146F94801F058
:103FF00078FC21023A46F748FFF759F9F548FEF7F1
:10400000C9FFF5A0FEF7C6FFF248FEF7D7FFF2A002
:10401000FEF7D4FF641CE6E7BDE8F0410020FFF79F
:1040200001B82DE9FF478146ECA1FDF7A9FFED4E50
:1040300008B3EDA0FEF7AEFFE7A0FEF7ABFFECA0E4
:10404000FEF7A8FF5FF0000406EB8400EAA1D0F8B9
:104050008C20EB4801F02AFAE948FEF79BFF641C2C
:10406000082CF1DBDCA0FEF795FFE6A0FEF792FF3F
:10407000DC480830B6E0E5A14846FDF781FFE54F92
:10408000E54D4FF00108002488B187F80080002634
:1040900005EB0617FC60B86803F082FD761C78809B
:1040A000082EF5DBDDA0FEF77BFFBDE8FF87DEA174
:1040B0004846FDF765FFE0B103AADDA1484601F0DF
:1040C00009FB0028F1D0039E05EB0615EC60A868FB
:1040D00003F066FD68803246D8A1C94801F0E6F9D0
:1040E000C748FEF75DFF4FF48061C54801F0F9FB5A
:1040F000DBE7D6A14846FDF743FF10B100F0E2FF31
:10410000D3E7D4A14846FDF73BFF60B102AB01AA5B
:10411000D2A1484601F0DEFA0028C6D0DDE901014F
:10412000FFF752FFC1E7D0A14846FDF729FF50B184
:1041300001AACFA1484601F0CDFA0028B5D087F8F2
:104140000080019819E0CDA14846FDF719FFB8B1EC
:10415000CC480090031F1A1FCBA1484601F0BAFAC1
:104160000028A2D0C7491C39D1E90502904204D0E9
:10417000C860C86908613C7097E7FFF7E9FE94E7FB
:10418000C5A14846FDF7FCFE28B3C5A0FEF708FF11
:10419000DFF820930024B0464FF4FA6708EB840060
:1041A00005EB0416B0F88C0000F2DC5080B2708091
:1041B000B78003F02DFDB16803F07AFE03F072FBC7
:1041C00000224B4602F042FE02F052FD641CF060F9
:1041D000082CE3DB69E7B8A14846FDF7D1FE0028CB
:1041E00086D0B7A0FEF7D6FE5FE770B57D4C94F899
:1041F0008800382820D104F108010D46754801F0E7
:104200002DFB227A242A03D01024724E30250AE096
:104210002846BDE8704004E7355530190F34457025
:104220008570C570E4B26B4801F03CFBA042F3D846
:10423000BDE870406748CDE470BD70B5754D914CD8
:1042400028781C3C10B10A20206070BDFEF7D1F820
:104250006168401A21688842F7D9FEF7CAF86060A1
:10426000E06908B1206958B1E068FFF771FED4E950
:104270000512E06891420ADA90420AD0401C11E02F
:1042800001202870BDE870408EA0FEF783BE9042EA
:1042900007D1E160E0690028D7D02069401E206185
:1042A00070BD401EE06070BD03E08B4200D1027023
:1042B000401C0378002BF8D17047002102E0472A08
:1042C00005D0401C0278002AF9D1501E70476FF0CB
:1042D0002F0304E001EB810103EB4101114410F8CD
:1042E000012F232A01D0242AF4D108467047F8B5BB
:1042F00004460120FEF796FE607824280DD0204663
:10430000FFF7DBFF0546401C02D0A07923283CD0F4
:104310006FA0BDE8F840FEF73DBEA0780027314E03
:10432000212818D057480090031F1A1F69A1204662
:1043300001F0D0F900284CD0524806F108051C388D
:10434000D0E9051081420CD109024FF48072284651
:10435000FEF7ADFF12E086F88870FFF729FC62A037
:10436000D7E78121284601F0DEFA611C284601F0DA
:1043700075FA204601F096FA30448771382086F8A5
:104380008800FFF715FC5DA0C3E77B223C21204697
:10439000FFF78AFF7D223E212046FFF785FF280791
:1043A00006D12802C11700EB11500013FFF710F8D7
:1043B000204601F077FA401C82B229022046FEF71F
:1043C000DFFF53A0FEF7E6FDBDE8F8400020FEF752
:1043D00029BEF8BD340500200D0A000024445253C4
:1043E00021000000340900206D6F64756C653A008F
:1043F000626961733A00000025642020000000001B
:1044000034010020707265436D643A0024445354B3
:104410002100000028000020B400002023323535A0
:104420005044535421000000244453543A000000E7
:10443000244453543A2564210000000023253033DE
:104440006450445354210D0A000000002452535478
:1044500021000000245054473A00000024505447E3
:104460003A25642D25642100244447533A00000076
:10447000244447533A256421000000002444475453
:104480003A00000070000020244447543A25642D6F
:1044900025642C256421000024444A522100000098
:1044A0002332353550313530305432303030210DF3
:1044B0000A000000000059402447455441210000F3
:1044C000414141004047726F7570446F6E65210035
:1044D000450000003C244447543A25642D25642CB3
:1044E0002564213E0000000040434C4541522050CD
:1044F00052455F434D44204F4B21000040534554EB
:10450000205052455F434D44204F4B210000000096
:10451000410000002DE9F84F88461FFA81FA16493C
:10452000814601EB091490B2A4F802A01646A080BF
:1045300002F058FE0022114B02F088FC05460F469F
:10454000504603F065FBA16803F0B2FC03F0AAF942
:104550002A463B4602F07AFC02F08AFBE0604346C2
:104560004A4607A10B48009600F0A0FFBDE8F84FAF
:104570000848FEF715BD0000B400002000003440DC
:10458000232530336450253034645425303464217D
:104590000D0A000034010020474810B58078474CD0
:1045A000622845D024DC38287AD017DC182871D04E
:1045B0000ADC02283ED0102805D164210120FDF735
:1045C000F2FD0E20207010BD222851D03028FAD1E3
:1045D00064210120FDF7E7FD0B20F3E7422861D0BD
:1045E0004A2861D0522861D05A28ECD134A05EE02C
:1045F000A82837D012DC90282ED009DC682847D0B4
:104600007A28E0D164210120FDF7CDFD0D20D9E706
:10461000982815D0A228D6D12EA048E0B02833D0B3
:10462000C2282BD0E02811D0E228CCD12FA03EE028
:1046300034A03CE064210120FDF7B5FD0120C1E775
:1046400064210120FDF7AFFD0220BBE764210120BA
:10465000FDF7A9FD0320B5E764210120FDF7A3FDC7
:104660000420AFE764210120FDF79DFD0020A9E7AC
:1046700064210120FDF797FD0520A3E764210120B7
:10468000FDF791FD06209DE724A010E008E001E081
:1046900027A00CE064210120FDF785FD0C2091E7A7
:1046A00028A004E02CA002E030A000E034A0BDE887
:1046B0001040FEF76FBC00009C0000207500002039
:1046C00049525F3620697320707265737365642187
:1046D0000D0A000049525F504F5745522069732020
:1046E00070726573736564210D0A000049525F4D55
:1046F0005554452069732070726573736564210D8C
:104700000A00000049525F4D454E552069732070E4
:10471000726573736564210D0A00000049525F4F92
:104720004B2069732070726573736564210D0A00F4
:1047300049525F302069732070726573736564211C
:104740000D0A000049525F3520697320707265734D
:10475000736564210D0A000049525F372069732098
:1047600070726573736564210D0A000049525F38E9
:104770002069732070726573736564210D0A0000EF
:1047800049525F39206973207072657373656421C3
:104790000D0A00001CB5A3F2DC535B4202F2DC52AE
:1047A000CDE90023A1F2DC514B4200F2DC52EEA134
:1047B000FD4800F07BFEBDE81C40FB48FEF7F0BB67
:1047C0002DE9F041F94C63256278FAB100264FF4E7
:1047D00016704FF4FA68012A1FD04142022A23D0F2
:1047E0004FF4FA77032A24D0042A32D0052A38D08D
:1047F000062A3BD00B2A41D00C2A43D00D2A45D0A3
:104800000E2A0FD1BDE8F04100F0E8BD00231A46A2
:1048100019461846FFF7BEFF03E0034606E0404690
:104820000DE06570BDE8F08108460B461A4611465A
:104830001EE003460A46194610460CE03846FDF7CE
:1048400081FB00231A4619461846FFF7A3FF26707E
:10485000E7E70B460246FFF79DFF20780128EDD0E1
:10486000DFE70B4602461146184601E003460A46BA
:10487000FFF790FF20780128D3D1D0E7BDE8F041C1
:1048800000F018BDBDE8F04100F040BDBDE8F041CA
:1048900000F061BD10B5C54CE078002803D0FFF7EB
:1048A0007BFE0020E07010BD2DE9F041C04D68781E
:1048B0007328B7D1287AC0F17F00FDF7A1FB7F24D0
:1048C000052800DA2C72A879C0F17F00FDF798FB6B
:1048D000052800DAAC71287AB44CC0F17F00C00022
:1048E0006061A979C1F17F01C900A161FDF788FB71
:1048F0004FF47A7500276E42642801DA676107E099
:104900006069A84201DD656102E0B04200DA6661DB
:10491000A069FDF775FB642801DAA76107E0A069CB
:10492000A84201DDA56102E0B04200DAA661E169BA
:104930006069884203D1226AA169914208D0A369C3
:1049400002461946FFF726FF6069E061A069206210
:1049500068E72DE9F041074696A1FDF711FB002518
:10496000924C012610B1657026705BE793A1384622
:10497000FDF706FB08B1657054E792A13846FDF7D4
:10498000FFFA0028F7D192A13846FDF7F9FA08B1ED
:10499000667047E790A13846FDF7F2FA08B10220A9
:1049A00005E08FA13846FDF7EBFA10B103206070E7
:1049B00038E78DA13846FDF7E3FA08B10420F6E7A1
:1049C0008BA13846FDF7DCFA08B10520EFE78AA194
:1049D0003846FDF7D5FA08B10620E8E788A1384641
:1049E000FDF7CEFA08B10B20E1E787A13846FDF7C5
:1049F000C7FA08B10C20DAE785A13846FDF7C0FAFE
:104A00000D250028B7D184A13846FDF7B9FA002852
:104A1000B1D183A13846FDF7B3FA0028A5D00E2006
:104A2000C5E72DE9F34F41780078604D01EB002098
:104A300081B080B22881E98881426FD068810840C6
:104A40000024DFF8E881DFF8E0A1288101264FF09B
:104A5000020908F10B0B2746298906FA04F00842DF
:104A60007ED1E988084271484FF4806179D000F026
:104A700038FF029873281BD10C2C43D00E2C43D046
:104A80000F2C44D00D2C44D0092C45D0022C43D0FF
:104A90000A2C45D0032C43D0082C43D00B2C41D0FA
:104AA000042C41D0062C41D0072C41D0052C41D0FC
:104AB0005FA15E48FDF764FA10F0FF0002D04044A9
:104AC00000F8017C5BA15948FDF75AFA38B300227F
:104AD00040F225515848FBF7CEFF8AF8007059463E
:104AE000314800F0BBFE3049504800F0B7FE8AF86C
:104AF0000060012240F225514F48FBF7BCFF4F48B0
:104B00000670ACE06E7008E185F8019005E10320C5
:104B100000E00420687000E10520FBE706E10BE0FF
:104B20000620F7E76F70F8E00B20F3E70C20F1E7C1
:104B30000D20EFE70E20EDE741A13C48FDF720FAFC
:104B400080B1002240F225513B48FBF794FF8AF8E0
:104B500000705946144800F081FE1349334871E053
:104B6000BEE080E07BE000007B2330303650253013
:104B700034645430303030212330303750253034D5
:104B80006454303030302123303038502530346494
:104B90005430303030212330303950253034645493
:104BA00030303030217D00003401002074000020BE
:104BB000081A00202457414B4521000024545A2153
:104BC0000000000024545A2124545A2100000000FF
:104BD00024514A2100000000244854210000000014
:104BE000245A5A210000000024595A2100000000D4
:104BF000245A505921000000245950592100000026
:104C000024444A4753210000245A59425A210000A3
:104C1000245A4E584A21000024584A4D532100007E
:104C200024584A425A21000029000020340500205F
:104C30005E00000024000000003801402A0000202F
:104C40002300000000F00AFE8AF80060012240F212
:104C50002551FB48FBF70FFFFA4981F800904FF60A
:104C6000FF70E88054E000F03CFE0298732814D1F5
:104C70000C2C3FF457AF0E2CFBD00D2CF9D00F2C81
:104C8000F7D0092CF5D0022CF3D00A2CF1D0032C4C
:104C9000EFD0082CEDD00B2CEBD0AFF26C01EA4832
:104CA000FDF76EF910F0FF0032D04044AFF27C0106
:104CB0000090FDF765F9A0B1E448009900F0CEFD41
:104CC000E24800F0EFFDE149084400F8017CDE48CD
:104CD00000F0C4FDDC48FFF73CFEDB48FFF7A1F91C
:104CE00016E0AFF2A4010098FDF74AF980B1D74869
:104CF000009900F0B3FDD54800F0D4FDD349084435
:104D000000F8017CD04800F0A9FDCF48FEF762FF13
:104D1000641CE4B2102CFFF49FAE6889E88003B0F5
:104D20006421BDE8F04F0120FDF73DBABDE8FE8FDC
:104D300070B5C74DC74C2878E178884203D16878B0
:104D40002179884207D06178E01CFFF76AFEE0789D
:104D500028702079687070BD10B5FDF74AFBBC4C17
:104D6000241F2169401A322807D3FDF742FB206136
:104D7000BDE81040B748FDF7ACBA10BD70B5B64CF1
:104D80002078002827D0AF4D2878012806D00228A7
:104D90000FD003280DD004280FD011E0AA48FFF748
:104DA00040F964210120FDF7FEF9A748FFF7D1FD86
:104DB00006E0A548FEF70EFF02E0A348FFF797FACA
:104DC000002028702070BDE87040012240F225517B
:104DD0009B48FBF750BE70BD10B5FDF70AFB9C4C1D
:104DE000241FE168401AB0F57A7F0DD9FDF701FB69
:104DF000E060A07808B1002100E001210D20FDF75E
:104E000026F9A078C043A07010BD10B5012105207F
:104E1000FDF71DF900210D20FDF719F96420FDF7BC
:104E200091F800210520FDF712F901210D20FDF771
:104E30000EF96420FDF786F801210520FDF707F93A
:104E400000210D20FDF703F96420FDF77BF8002118
:104E50000520FDF7FCF801210D20FDF7F8F864208E
:104E6000FDF770F801210520FDF7F1F800210D2074
:104E7000FDF7EDF86420FDF765F800210520FDF74A
:104E8000E6F801210D20FDF7E2F8BDE810406420AE
:104E9000FDF758B862B67047FDF796BA10B54FF4F3
:104EA000E130FDF7D7FD012240F225516B48FBF7B9
:104EB000E2FD6BA0FEF782F8BDE810406CA0FEF7A3
:104EC0006FB810B54FF4E130FDF764FE012240F2F7
:104ED00025515B48FBF7CFFDBDE8104068A0FEF709
:104EE00059B847214FF6FF70FDF72ABCFDF7A0B96E
:104EF0002DE9F0410120FEF795F8FEF7D4F8C02225
:104F000063496448FEF7D3F9624D63480026296877
:104F1000814201D0C5E90006D5F8AC0038280CD094
:104F20005FF0000005EB8001401CC0B2C1F88C604E
:104F30000828F7D33820C5F8AC00DFF860810024DA
:104F400005EB840008EB0417D0F88C0000F2DC506D
:104F5000788002F045FEC7E90206641CE4B2082C22
:104F6000EED3BDE8F0410020FEF75CB810B5FDF7C8
:104F700086F80021BDE810400520FDF768B810B59F
:104F8000FDF751F80121BDE810400D20FDF75FB895
:104F9000FDF73EB8FCF7E2BFFDF7D2B908B5FDF763
:104FA000CFF9FCF7DBFFFDF733F8FFF7E8FFFFF77A
:104FB000DDFFFEF7DBFDFFF79BFFFDF739F9FFF79C
:104FC00090FFFFF77EFFFFF769FFFDF7FDF9FEF7A2
:104FD000CFFD62B61F48324B0C300090314A324947
:104FE0003248FEF7B7FBFEF7C8FDFDF7D5F9FFF72E
:104FF0000CFFFFF7FAF800F0EAF800BFFFF7ECFE4D
:10500000FFF7BCFEFFF7A8FEFFF792FEFFF74CFC90
:10501000FFF740FCFFF7D4FBF0E7FEF78ABB10B5C3
:105020004FF4E130FDF765FD012240F225512048A3
:10503000FBF721FDBDE810401EA0FDF7AEBF00004C
:10504000003801402A0000203405002034010020EF
:1050500078000020081A00202900002000480040A5
:10506000756172743320636865636B206F6B210018
:105070002332353550313530305432303030210024
:10508000756172743120636865636B206F6B2100FA
:1050900000F07F0034090020388B3401B400002078
:1050A00000003E43000096420000D2420000DC4275
:1050B00000440040756172743220636865636B2040
:1050C0006F6B2100012080F3138825480168254A71
:1050D00001F4E06111430160BFF34F8FFEE72DE95A
:1050E000FF4F002681B09A4693468946374611F114
:1050F000FF4F32D21C4D00246FF08608204602F08C
:105100006FFD03465A46494600950198FEF73EFB5F
:1051100018B9B44200DA26460127641E4445EDDA88
:10512000DFB1304602F05CFD03465A464946009521
:105130000198FEF72BFB002405EB8400006C02F0C5
:1051400013FD014652462046FFF7E4F9641C042C87
:10515000F2DB012005B0BDE8F08F0020FAE7000087
:105160000CED00E00400FA05141A002008B5012136
:105170000C20FBF72CFB0120ADF8000010208DF86F
:10518000030003208DF802006946BE48FBF735F99D
:105190000420ADF800008DF803006946BA48FBF71B
:1051A0002CF9472147F23050FDF78BF908BD08B5BF
:1051B00001210420FBF70BFB0320ADF80000482081
:1051C0008DF803006946B048FBF717F908BD10B524
:1051D000FFF7EDFFBDE81040C8E7002206E0002120
:1051E000491C89B20929FBD3521C92B28242F6D3E0
:1051F00070472DE9F041002401212046FCF727FFEC
:105200001E20FFF7EAFF00210846FCF720FFDFF829
:105210007C829D4D42F2107601E0444534DA04214F
:105220002846FBF744F918B92046641CB042F4DB69
:10523000974F00213846FCF744FA01213846FCF725
:1052400042F801E044451FDA04212846FBF72FF914
:10525000012803D12046641CB042F3DB002138460C
:10526000FCF731F83846FCF74AFA46F2A8118842B2
:105270000AD201F0B7FF874A874B02F003F801F02A
:105280006DFF80B2BDE8F0810020FBE770B5834D73
:10529000002400BFFFF7ADFF45F82400641CE4B212
:1052A000052CF7D305217D48FCF78AFE7C49A868C8
:1052B000086070BD10B5FDF79CF8794C6168401A24
:1052C000642822D9FDF795F86060FFF7DFFF142806
:1052D00001DA74480FE0A0F11A01092901D3462828
:1052E00004DD00231A461946184607E0293813281A
:1052F0000BD24FF4167003461A461146FFF74AFACE
:10530000BDE810406420FCF71DBE10BD10B5FDF7D0
:1053100070F8634CA168401A64281BD9FDF769F83E
:10532000A060FFF7B3FF01464FF4167014290ADAA4
:1053300041420B460246FFF72DFABDE810404FF4FC
:10534000FA70FCF7FFBD03461A46BDE8104011464F
:10535000FFF720BA10BD70B5FDF74BF8504CE1686F
:10536000401A322839D9FDF744F8474DE060012151
:105370002846FBF79CF84C4C20B902212846FBF745
:1053800096F830B101212846FBF791F8012806D0A4
:105390000AE0236864331A461846114614E00221D5
:1053A0002846FBF784F898B101212846FBF77FF8DF
:1053B000002812D102212846FBF779F801280CD1E8
:1053C0002268002310461946BDE87040FFF7E2B995
:1053D0002368002219461046F6E770BD70B5FDF748
:1053E00008F82F4C2169401A322849D9FDF701F8F5
:1053F0002061FFF74BFF14280BDA00231A461946E9
:105400001846FFF7C7F9BDE870404FF4FA70FCF793
:1054100099BD1D4D01212846FBF749F8224C20B9C2
:1054200002212846FBF743F830B101212846FBF75B
:105430003EF8012806D00AE0236864331A4618466D
:10544000114614E002212846FBF731F898B10121FA
:105450002846FBF72CF8002812D102212846FBF73A
:1054600026F801280CD12268002310461946BDE811
:105470007040FFF78FB92368002219461046F6E7FF
:1054800070BD0000000C01400008014020A1070091
:10549000000400409CC420B07268913F6C1A002048
:1054A000A0000020A8FDFFFF980000200FB41CB54D
:1054B000074B06AA7B4469460090059800F0C7FA9E
:1054C0000020694600F0D6FA1CBC5DF814FB000011
:1054D000BD05000070B5044685690068C10601D5A8
:1054E000302600E02026C00707D070BDD4E9012196
:1054F00030469047206A401C20626D1EF6D570BD74
:1055000070B5044685690078C00707D170BDD4E93D
:10551000012120209047206A401C20626D1EF6D594
:1055200070BD00002DE9F041064600241068752981
:10553000314616A510D0AFF30080002802DA4042B1
:1055400013A507E031688A0701D512A502E04907D3
:1055500004D511A5012401E0AFF3008000210A2247
:1055600006F1240709E0B0FBF2FCB0FBF2F302FB0A
:105570001C00303078541846491C0028F3D12346CB
:105580002A463046BDE8F04100F002BA00000000B3
:105590002D0000002B000000200000002DE9F05F2E
:1055A000894604464FF0000ADFF824B1FB44C0F8F6
:1055B00020A02046E168884700287DD0252806D015
:1055C000D4E901219047206A401C2062F1E70025C0
:1055D0005F462046E16888472028064607DB312ED3
:1055E00005D2B81910F8200C08B10543F1E7A80757
:1055F00001D525F00405C4F81CA00027C4F818A0A4
:105600002A2E09D0304601F003F838B304EB87089E
:10561000303EC8F8186019E059F8041B204604EB26
:1056200087029161E1688847012F064618D1E06939
:10563000002820DA25F020051DE0D8F8180000EB3E
:10564000800006EB40003038C8F818002046E168BA
:105650008847064600F0DCFF0028EED1012F0AD073
:105660002E2E08D12046E16888477F1C0646022F6F
:1056700045F02005C4DBA069002803DA404245F06C
:105680000105A061E80701D025F01005A6B1A6F13B
:105690004100192802D8203645F400654A463146B3
:1056A000204625604D46FAF77DFD60B1012807D000
:1056B000ED1D25F0070000E007E000F1080978E79C
:1056C00005F1040975E730467AE7206ABDE8F09FE6
:1056D000262B00000FB400B58DB010A909900091E1
:1056E0000B904FF0FF300A9000200C900648784451
:1056F0000690064878446A4607900F9909A800F07A
:10570000D3F90DB05DF814FBD7030000EF030000E0
:105710002DE9FF5F1D464FF0FF3B91464FF000081B
:105720005F46D5E90146A96901987F1C8847296A27
:10573000824688470028F6D1BAF1FF3F0CD0002EF0
:1057400024F4C06419DD600614D5BAF12B0F09D01A
:10575000BAF12D0F0ED103E0584604B0BDE8F09F1A
:1057600044F48064A96901987F1C8847761E8246AC
:10577000002E02DDBAF1300F03D0B9F1000F26D0B0
:1057800032E0A969761E01987F1C44F400748847B2
:10579000002E824605DDBAF1780F06D0BAF1580F17
:1057A00003D0B9F1000F10D01EE0B9F1000F02D004
:1057B000B9F1100F18D1A969761E01987F1C24F445
:1057C000007488478246102002E0082000E00A208A
:1057D000814609E0A96908FB0908761E01987F1C2B
:1057E00044F4007488478246002E05DD4946504641
:1057F00000F045F90028EDDAE96901988847A0052D
:1058000002D46FF00100A8E7E00725D1600613D5A8
:10581000600502D5C8F1000000E0404629680A1D75
:105820002A600968220501D5087015E0220701D514
:10583000088011E008600FE02868011D29600068F9
:10584000210502D580F8008006E0210702D5A0F8E6
:10585000008001E0C0F8008038467EE740EA01039E
:10586000024630B59B0710D14FF0013400E008C26A
:1058700008C91D1B9D4315EAC41FF8D013F0FF0192
:1058800002F8011B0DD01B0AF8E711F8013B002BB1
:1058900002F8013B05D011F8013B002B02F8013B57
:1058A000F3D130BD10B5431C02E010F8011B71B1FB
:1058B0008107FAD14FF0013202C88C1A8C4314EAE6
:1058C000C211F9D0C01A0A0603D0C01E10BDC01AFA
:1058D00010BD0A0401D0801E10BD0902FCD0401E7C
:1058E00010BD4FF000020429C0F0128010F0030C2C
:1058F00000F01B80CCF1040CBCF1020F18BF00F8C3
:10590000012BA8BF20F8022BA1EB0C0100F00DB871
:105910005FEAC17C24BF00F8012B00F8012B48BFCF
:1059200000F8012B70474FF0000200B51346944673
:105930009646203922BFA0E80C50A0E80C50B1F1E7
:105940002001BFF4F7AF090728BFA0E80C5048BFFB
:105950000CC05DF804EB890028BF40F8042B08BF99
:10596000704748BF20F8022B11F0804F18BF00F895
:10597000012B704770477047704710B500F0C4F8AE
:10598000006810BD10B5044600F0BEF8046010BDFC
:105990002DE9F0470D4699469246044600F1240849
:1059A0000168880604D5E06921F01001216000E05B
:1059B0000120A84201DD471B00E00027A1697A19F8
:1059C00002EB0900081AA0612078C00602D4204624
:1059D000FFF780FD002608E0D4E901211AF806004F
:1059E0009047206A401C761C20624E45F4DB2078EC
:1059F000C0060AD52046FFF76DFD06E0D4E9012177
:105A000030209047206A401C2062381EA7F1010711
:105A1000F4DC07E0D4E9012118F805009047206A7A
:105A2000401C2062281EA5F10105F3DC2046FFF78B
:105A300067FD2078000602D50220BDE8F08701202E
:105A4000FBE7000001694A1C02610878704700B555
:105A50008FB0CDE901310021059105497944CDE9A7
:105A6000031011466846FFF799FD0FB000BD000016
:105A7000E5FFFFFF0A6802F8010B0A6070473A2849
:105A800000D2303820F02002412A01D3A2F13700A1
:105A9000884201D34FF0FF30704700000268114484
:105AA0001378016018467047D16005497944516107
:105AB00004497944116200211161114600F032B8A5
:105AC000EDFFFFFF5B000000426842B1016811F882
:105AD000013B23B1521EC0E9001218467047012154
